{
  "contractName": "ProductsContract",
  "abi": [
    {
      "inputs": [],
      "stateMutability": "nonpayable",
      "type": "constructor"
    },
    {
      "anonymous": false,
      "inputs": [
        {
          "indexed": false,
          "internalType": "uint256",
          "name": "id",
          "type": "uint256"
        },
        {
          "indexed": false,
          "internalType": "string",
          "name": "productName",
          "type": "string"
        },
        {
          "indexed": false,
          "internalType": "string",
          "name": "productDescription",
          "type": "string"
        },
        {
          "indexed": false,
          "internalType": "uint256",
          "name": "quantity",
          "type": "uint256"
        },
        {
          "indexed": false,
          "internalType": "uint256",
          "name": "createdAt",
          "type": "uint256"
        }
      ],
      "name": "ProductCreated",
      "type": "event"
    },
    {
      "anonymous": false,
      "inputs": [
        {
          "indexed": false,
          "internalType": "uint256",
          "name": "id",
          "type": "uint256"
        },
        {
          "indexed": false,
          "internalType": "uint256",
          "name": "quantity",
          "type": "uint256"
        }
      ],
      "name": "ProductDecreased",
      "type": "event"
    },
    {
      "inputs": [
        {
          "internalType": "address",
          "name": "",
          "type": "address"
        },
        {
          "internalType": "uint256",
          "name": "",
          "type": "uint256"
        }
      ],
      "name": "products",
      "outputs": [
        {
          "internalType": "uint256",
          "name": "id",
          "type": "uint256"
        },
        {
          "internalType": "string",
          "name": "productName",
          "type": "string"
        },
        {
          "internalType": "string",
          "name": "productDescription",
          "type": "string"
        },
        {
          "internalType": "uint256",
          "name": "quantity",
          "type": "uint256"
        },
        {
          "internalType": "uint256",
          "name": "createdAt",
          "type": "uint256"
        }
      ],
      "stateMutability": "view",
      "type": "function",
      "constant": true
    },
    {
      "inputs": [
        {
          "internalType": "address",
          "name": "",
          "type": "address"
        }
      ],
      "name": "productsCounter",
      "outputs": [
        {
          "internalType": "uint256",
          "name": "",
          "type": "uint256"
        }
      ],
      "stateMutability": "view",
      "type": "function",
      "constant": true
    },
    {
      "inputs": [
        {
          "internalType": "string",
          "name": "_productName",
          "type": "string"
        },
        {
          "internalType": "string",
          "name": "_productDescription",
          "type": "string"
        },
        {
          "internalType": "uint256",
          "name": "_quantity",
          "type": "uint256"
        }
      ],
      "name": "addProduct",
      "outputs": [],
      "stateMutability": "nonpayable",
      "type": "function"
    },
    {
      "inputs": [
        {
          "internalType": "uint256",
          "name": "_id",
          "type": "uint256"
        },
        {
          "internalType": "uint256",
          "name": "_quantity",
          "type": "uint256"
        }
      ],
      "name": "decreaseProductQuantity",
      "outputs": [],
      "stateMutability": "nonpayable",
      "type": "function"
    },
    {
      "inputs": [
        {
          "internalType": "uint256",
          "name": "_id",
          "type": "uint256"
        }
      ],
      "name": "deleteProduct",
      "outputs": [],
      "stateMutability": "nonpayable",
      "type": "function"
    },
    {
      "inputs": [
        {
          "internalType": "uint256",
          "name": "_id",
          "type": "uint256"
        }
      ],
      "name": "getProduct",
      "outputs": [
        {
          "internalType": "uint256",
          "name": "",
          "type": "uint256"
        },
        {
          "internalType": "string",
          "name": "",
          "type": "string"
        },
        {
          "internalType": "string",
          "name": "",
          "type": "string"
        },
        {
          "internalType": "uint256",
          "name": "",
          "type": "uint256"
        },
        {
          "internalType": "uint256",
          "name": "",
          "type": "uint256"
        }
      ],
      "stateMutability": "view",
      "type": "function",
      "constant": true
    }
  ],
  "bytecode": "0x60806040523480156200001157600080fd5b506200006f604051806040016040528060098152602001681b985b59481d195cdd60ba1b8152506040518060400160405280601081526020016f19195cd8dc9a5c1d1a5bdb881d195cdd60821b81525060436200008360201b60201c565b6200007d600060076200017e565b620005f6565b33600081815260016020818152604080842054815160a0810183528181528084018a81528184018a9052606082018990524260808301529686528584528286208287529093529320815181559351929390929091820190620000e6908262000450565b5060408201516002820190620000fd908262000450565b5060608201518160030155608082015181600401559050507f925d44cac5c3c8d7cc237ff3294f4ea7d55bb90b068848814cbbe534bb7ea6a581858585426040516200014e95949392919062000564565b60405180910390a13360009081526001602052604081208054916200017383620005be565b919050555050505050565b336000908152602081815260408083208584528252808320815160a08101909252805482526001810180549293919291840191620001bc90620003c1565b80601f0160208091040260200160405190810160405280929190818152602001828054620001ea90620003c1565b80156200023b5780601f106200020f576101008083540402835291602001916200023b565b820191906000526020600020905b8154815290600101906020018083116200021d57829003601f168201915b505050505081526020016002820180546200025690620003c1565b80601f01602080910402602001604051908101604052809291908181526020018280546200028490620003c1565b8015620002d55780601f10620002a957610100808354040283529160200191620002d5565b820191906000526020600020905b815481529060010190602001808311620002b757829003601f168201915b505050505081526020016003820154815260200160048201548152505090508181606001818151620003089190620005da565b905250336000908152602081815260408083208684528252909120825181559082015182919060018201906200033f908262000450565b506040820151600282019062000356908262000450565b506060820151600382015560809091015160049091015560408051848152602081018490527f5151f00564df0f1b8559da0cac16b19ff04960adde329fe2efcbee9b90d1de66910160405180910390a1505050565b634e487b7160e01b600052604160045260246000fd5b600181811c90821680620003d657607f821691505b602082108103620003f757634e487b7160e01b600052602260045260246000fd5b50919050565b601f8211156200044b57600081815260208120601f850160051c81016020861015620004265750805b601f850160051c820191505b81811015620004475782815560010162000432565b5050505b505050565b81516001600160401b038111156200046c576200046c620003ab565b62000484816200047d8454620003c1565b84620003fd565b602080601f831160018114620004bc5760008415620004a35750858301515b600019600386901b1c1916600185901b17855562000447565b600085815260208120601f198616915b82811015620004ed57888601518255948401946001909101908401620004cc565b50858210156200050c5787850151600019600388901b60f8161c191681555b5050505050600190811b01905550565b6000815180845260005b81811015620005445760208185018101518683018201520162000526565b506000602082860101526020601f19601f83011685010191505092915050565b85815260a0602082015260006200057f60a08301876200051c565b82810360408401526200059381876200051c565b60608401959095525050608001529392505050565b634e487b7160e01b600052601160045260246000fd5b600060018201620005d357620005d3620005a8565b5060010190565b81810381811115620005f057620005f0620005a8565b92915050565b610bbb80620006066000396000f3fe608060405234801561001057600080fd5b50600436106100625760003560e01c806336d83f6c14610067578063551d27c81461009a578063b9db15b4146100af578063ed90c7b7146100d3578063f28ea1c1146100e6578063fc640949146100f9575b600080fd5b6100876100753660046107d7565b60016020526000908152604090205481565b6040519081526020015b60405180910390f35b6100ad6100a83660046107f9565b61010c565b005b6100c26100bd36600461081b565b610323565b60405161009195949392919061087a565b6100ad6100e136600461081b565b6104e1565b6100ad6100f436600461095d565b61052b565b6100c26101073660046109ca565b61061e565b336000908152602081815260408083208584528252808320815160a08101909252805482526001810180549293919291840191610148906109f4565b80601f0160208091040260200160405190810160405280929190818152602001828054610174906109f4565b80156101c15780601f10610196576101008083540402835291602001916101c1565b820191906000526020600020905b8154815290600101906020018083116101a457829003601f168201915b505050505081526020016002820180546101da906109f4565b80601f0160208091040260200160405190810160405280929190818152602001828054610206906109f4565b80156102535780601f1061022857610100808354040283529160200191610253565b820191906000526020600020905b81548152906001019060200180831161023657829003601f168201915b5050505050815260200160038201548152602001600482015481525050905081816060018181516102849190610a44565b905250336000908152602081815260408083208684528252909120825181559082015182919060018201906102b99082610aac565b50604082015160028201906102ce9082610aac565b506060820151600382015560809091015160049091015560408051848152602081018490527f5151f00564df0f1b8559da0cac16b19ff04960adde329fe2efcbee9b90d1de66910160405180910390a1505050565b3360009081526001602052604081205460609081908390819086106103835760405162461bcd60e51b815260206004820152601260248201527150726f64756374206e6f7420666f756e642160701b604482015260640160405180910390fd5b33600090815260208181526040808320898452909152902080546003820154600483015460018401805490926002860192909184906103c1906109f4565b80601f01602080910402602001604051908101604052809291908181526020018280546103ed906109f4565b801561043a5780601f1061040f5761010080835404028352916020019161043a565b820191906000526020600020905b81548152906001019060200180831161041d57829003601f168201915b5050505050935082805461044d906109f4565b80601f0160208091040260200160405190810160405280929190818152602001828054610479906109f4565b80156104c65780601f1061049b576101008083540402835291602001916104c6565b820191906000526020600020905b8154815290600101906020018083116104a957829003601f168201915b50505050509250955095509550955095505091939590929450565b3360009081526020818152604080832084845290915281208181559061050a6001830182610765565b610518600283016000610765565b5060006003820181905560049091015550565b33600081815260016020818152604080842054815160a0810183528181528084018a81528184018a905260608201899052426080830152968652858452828620828752909352932081518155935192939092909182019061058c9082610aac565b50604082015160028201906105a19082610aac565b5060608201518160030155608082015181600401559050507f925d44cac5c3c8d7cc237ff3294f4ea7d55bb90b068848814cbbe534bb7ea6a581858585426040516105f095949392919061087a565b60405180910390a133600090815260016020526040812080549161061383610b6c565b919050555050505050565b600060208181529281526040808220909352908152208054600182018054919291610648906109f4565b80601f0160208091040260200160405190810160405280929190818152602001828054610674906109f4565b80156106c15780601f10610696576101008083540402835291602001916106c1565b820191906000526020600020905b8154815290600101906020018083116106a457829003601f168201915b5050505050908060020180546106d6906109f4565b80601f0160208091040260200160405190810160405280929190818152602001828054610702906109f4565b801561074f5780601f106107245761010080835404028352916020019161074f565b820191906000526020600020905b81548152906001019060200180831161073257829003601f168201915b5050505050908060030154908060040154905085565b508054610771906109f4565b6000825580601f10610781575050565b601f01602090049060005260206000209081019061079f91906107a2565b50565b5b808211156107b757600081556001016107a3565b5090565b80356001600160a01b03811681146107d257600080fd5b919050565b6000602082840312156107e957600080fd5b6107f2826107bb565b9392505050565b6000806040838503121561080c57600080fd5b50508035926020909101359150565b60006020828403121561082d57600080fd5b5035919050565b6000815180845260005b8181101561085a5760208185018101518683018201520161083e565b506000602082860101526020601f19601f83011685010191505092915050565b85815260a06020820152600061089360a0830187610834565b82810360408401526108a58187610834565b60608401959095525050608001529392505050565b634e487b7160e01b600052604160045260246000fd5b600082601f8301126108e157600080fd5b813567ffffffffffffffff808211156108fc576108fc6108ba565b604051601f8301601f19908116603f01168101908282118183101715610924576109246108ba565b8160405283815286602085880101111561093d57600080fd5b836020870160208301376000602085830101528094505050505092915050565b60008060006060848603121561097257600080fd5b833567ffffffffffffffff8082111561098a57600080fd5b610996878388016108d0565b945060208601359150808211156109ac57600080fd5b506109b9868287016108d0565b925050604084013590509250925092565b600080604083850312156109dd57600080fd5b6109e6836107bb565b946020939093013593505050565b600181811c90821680610a0857607f821691505b602082108103610a2857634e487b7160e01b600052602260045260246000fd5b50919050565b634e487b7160e01b600052601160045260246000fd5b81810381811115610a5757610a57610a2e565b92915050565b601f821115610aa757600081815260208120601f850160051c81016020861015610a845750805b601f850160051c820191505b81811015610aa357828155600101610a90565b5050505b505050565b815167ffffffffffffffff811115610ac657610ac66108ba565b610ada81610ad484546109f4565b84610a5d565b602080601f831160018114610b0f5760008415610af75750858301515b600019600386901b1c1916600185901b178555610aa3565b600085815260208120601f198616915b82811015610b3e57888601518255948401946001909101908401610b1f565b5085821015610b5c5787850151600019600388901b60f8161c191681555b5050505050600190811b01905550565b600060018201610b7e57610b7e610a2e565b506001019056fea264697066735822122086b213439baeed1a0bd4ba829efc257583c192e017ccaba0510a47c5dc6f90b264736f6c63430008120033",
  "immutableReferences": {},
  "source": "// SPDX-License-Identifier: MIT\r\npragma solidity >=0.4.22 <0.9.0;\r\n\r\ncontract ProductsContract {\r\n  \r\n  constructor() {\r\n    addProduct('name test', 'description test', 67);\r\n    decreaseProductQuantity(0, 7);\r\n  }\r\n\r\n  struct Product {\r\n    uint id;\r\n    string productName;\r\n    string productDescription;\r\n    uint quantity;\r\n    uint createdAt;\r\n  }\r\n\r\n  event ProductCreated (\r\n    uint id,\r\n    string productName,\r\n    string productDescription,\r\n    uint quantity,\r\n    uint createdAt\r\n  );\r\n\r\n  event ProductDecreased (\r\n    uint id,\r\n    uint quantity\r\n  );\r\n\r\n  mapping (address => mapping(uint => Product)) public products;\r\n  mapping (address => uint) public productsCounter;\r\n\r\n  function addProduct(string memory _productName, string memory _productDescription, uint _quantity) public {\r\n    uint counter = productsCounter[msg.sender];\r\n    products[msg.sender][counter] = Product(counter, _productName, _productDescription, _quantity, block.timestamp);\r\n    emit ProductCreated(counter, _productName, _productDescription, _quantity, block.timestamp);\r\n    productsCounter[msg.sender]++;\r\n  }\r\n\r\n  function decreaseProductQuantity(uint _id, uint _quantity) public {\r\n    Product memory product = products[msg.sender][_id];\r\n    product.quantity -= _quantity;\r\n    products[msg.sender][_id] = product;\r\n    emit ProductDecreased(_id, _quantity); \r\n  }\r\n\r\n  function deleteProduct(uint _id) public {\r\n    delete products[msg.sender][_id];\r\n  }\r\n\r\n  function getProduct(uint _id) public view returns (uint, string memory, string memory, uint, uint) {\r\n    require(_id < productsCounter[msg.sender], 'Product not found!');\r\n    Product storage product = products[msg.sender][_id];\r\n    return (product.id, product.productName, product.productDescription, product.quantity, product.createdAt);\r\n  }\r\n\r\n}\r\n",
  "sourcePath": "C:\\Users\\loren\\Downloads\\Projects\\blockchain\\blockchain-inventory-system\\contracts\\ProductsContract.sol",
  "compiler": {
    "name": "solc",
    "version": "0.8.18+commit.87f61d96.Emscripten.clang"
  },
  "schemaVersion": "3.4.12",
  "updatedAt": "2023-09-28T22:55:29.816Z",
  "networkType": "ethereum",
  "devdoc": {
    "kind": "dev",
    "methods": {},
    "version": 1
  },
  "userdoc": {
    "kind": "user",
    "methods": {},
    "version": 1
  }
}