{
  "contractName": "ProductsContract",
  "abi": [
    {
      "inputs": [],
      "stateMutability": "nonpayable",
      "type": "constructor"
    },
    {
      "anonymous": false,
      "inputs": [
        {
          "indexed": false,
          "internalType": "uint256",
          "name": "id",
          "type": "uint256"
        },
        {
          "indexed": false,
          "internalType": "string",
          "name": "categoryName",
          "type": "string"
        },
        {
          "indexed": false,
          "internalType": "string",
          "name": "categoryDescription",
          "type": "string"
        }
      ],
      "name": "CategoryCreated",
      "type": "event"
    },
    {
      "anonymous": false,
      "inputs": [
        {
          "indexed": false,
          "internalType": "uint256",
          "name": "id",
          "type": "uint256"
        },
        {
          "indexed": false,
          "internalType": "string",
          "name": "productName",
          "type": "string"
        },
        {
          "indexed": false,
          "internalType": "string",
          "name": "productDescription",
          "type": "string"
        },
        {
          "indexed": false,
          "internalType": "uint256",
          "name": "quantity",
          "type": "uint256"
        },
        {
          "indexed": false,
          "internalType": "uint256",
          "name": "createdAt",
          "type": "uint256"
        },
        {
          "indexed": false,
          "internalType": "uint256",
          "name": "productCategory",
          "type": "uint256"
        }
      ],
      "name": "ProductCreated",
      "type": "event"
    },
    {
      "anonymous": false,
      "inputs": [
        {
          "indexed": false,
          "internalType": "uint256",
          "name": "id",
          "type": "uint256"
        },
        {
          "indexed": false,
          "internalType": "uint256",
          "name": "quantity",
          "type": "uint256"
        }
      ],
      "name": "ProductDecreased",
      "type": "event"
    },
    {
      "inputs": [
        {
          "internalType": "address",
          "name": "",
          "type": "address"
        },
        {
          "internalType": "uint256",
          "name": "",
          "type": "uint256"
        }
      ],
      "name": "categories",
      "outputs": [
        {
          "internalType": "uint256",
          "name": "id",
          "type": "uint256"
        },
        {
          "internalType": "string",
          "name": "categoryName",
          "type": "string"
        },
        {
          "internalType": "string",
          "name": "categoryDescription",
          "type": "string"
        }
      ],
      "stateMutability": "view",
      "type": "function",
      "constant": true
    },
    {
      "inputs": [
        {
          "internalType": "address",
          "name": "",
          "type": "address"
        }
      ],
      "name": "categoriesCounter",
      "outputs": [
        {
          "internalType": "uint256",
          "name": "",
          "type": "uint256"
        }
      ],
      "stateMutability": "view",
      "type": "function",
      "constant": true
    },
    {
      "inputs": [
        {
          "internalType": "address",
          "name": "",
          "type": "address"
        },
        {
          "internalType": "uint256",
          "name": "",
          "type": "uint256"
        }
      ],
      "name": "products",
      "outputs": [
        {
          "internalType": "uint256",
          "name": "id",
          "type": "uint256"
        },
        {
          "internalType": "string",
          "name": "productName",
          "type": "string"
        },
        {
          "internalType": "string",
          "name": "productDescription",
          "type": "string"
        },
        {
          "internalType": "uint256",
          "name": "quantity",
          "type": "uint256"
        },
        {
          "internalType": "uint256",
          "name": "createdAt",
          "type": "uint256"
        },
        {
          "internalType": "uint256",
          "name": "categoryId",
          "type": "uint256"
        }
      ],
      "stateMutability": "view",
      "type": "function",
      "constant": true
    },
    {
      "inputs": [
        {
          "internalType": "address",
          "name": "",
          "type": "address"
        }
      ],
      "name": "productsCounter",
      "outputs": [
        {
          "internalType": "uint256",
          "name": "",
          "type": "uint256"
        }
      ],
      "stateMutability": "view",
      "type": "function",
      "constant": true
    },
    {
      "inputs": [
        {
          "internalType": "string",
          "name": "_productName",
          "type": "string"
        },
        {
          "internalType": "string",
          "name": "_productDescription",
          "type": "string"
        },
        {
          "internalType": "uint256",
          "name": "_quantity",
          "type": "uint256"
        },
        {
          "internalType": "uint256",
          "name": "_categoryId",
          "type": "uint256"
        }
      ],
      "name": "addProduct",
      "outputs": [],
      "stateMutability": "nonpayable",
      "type": "function"
    },
    {
      "inputs": [
        {
          "internalType": "string",
          "name": "_name",
          "type": "string"
        },
        {
          "internalType": "string",
          "name": "_description",
          "type": "string"
        }
      ],
      "name": "addCategory",
      "outputs": [],
      "stateMutability": "nonpayable",
      "type": "function"
    },
    {
      "inputs": [
        {
          "internalType": "uint256",
          "name": "_id",
          "type": "uint256"
        },
        {
          "internalType": "uint256",
          "name": "_quantity",
          "type": "uint256"
        }
      ],
      "name": "decreaseProductQuantity",
      "outputs": [],
      "stateMutability": "nonpayable",
      "type": "function"
    },
    {
      "inputs": [
        {
          "internalType": "uint256",
          "name": "_id",
          "type": "uint256"
        }
      ],
      "name": "deleteProduct",
      "outputs": [],
      "stateMutability": "nonpayable",
      "type": "function"
    },
    {
      "inputs": [
        {
          "internalType": "uint256",
          "name": "_id",
          "type": "uint256"
        }
      ],
      "name": "getProduct",
      "outputs": [
        {
          "internalType": "uint256",
          "name": "",
          "type": "uint256"
        },
        {
          "internalType": "string",
          "name": "",
          "type": "string"
        },
        {
          "internalType": "string",
          "name": "",
          "type": "string"
        },
        {
          "internalType": "uint256",
          "name": "",
          "type": "uint256"
        },
        {
          "internalType": "uint256",
          "name": "",
          "type": "uint256"
        },
        {
          "internalType": "uint256",
          "name": "",
          "type": "uint256"
        }
      ],
      "stateMutability": "view",
      "type": "function",
      "constant": true
    },
    {
      "inputs": [
        {
          "internalType": "uint256",
          "name": "_id",
          "type": "uint256"
        }
      ],
      "name": "getCategory",
      "outputs": [
        {
          "internalType": "uint256",
          "name": "",
          "type": "uint256"
        },
        {
          "internalType": "string",
          "name": "",
          "type": "string"
        },
        {
          "internalType": "string",
          "name": "",
          "type": "string"
        }
      ],
      "stateMutability": "view",
      "type": "function",
      "constant": true
    }
  ],
  "bytecode": "0x608060405234801561001057600080fd5b50611152806100206000396000f3fe608060405234801561001057600080fd5b506004361061009e5760003560e01c806397007753116100665780639700775314610131578063b9db15b414610153578063ed90c7b714610178578063f3052d261461018b578063fc6409491461019e57600080fd5b806301cecd14146100a35780631bf703b2146100b857806336d83f6c146100cb578063551d27c8146100fe578063898ceb2014610111575b600080fd5b6100b66100b1366004610d4b565b6101b1565b005b6100b66100c6366004610dbf565b610311565b6100eb6100d9366004610e3f565b60026020526000908152604090205481565b6040519081526020015b60405180910390f35b6100b661010c366004610e61565b6103e2565b6100eb61011f366004610e3f565b60036020526000908152604090205481565b61014461013f366004610e83565b61060d565b6040516100f593929190610ef3565b610166610161366004610f28565b610747565b6040516100f596959493929190610f41565b6100b6610186366004610f28565b61090c565b610144610199366004610f28565b61095d565b6101666101ac366004610e83565b610b05565b33600090815260036020526040902054811061020a5760405162461bcd60e51b815260206004820152601360248201527243617465676f7279206e6f7420666f756e642160681b60448201526064015b60405180910390fd5b33600081815260026020908152604080832054815160c0810183528181528084018a81528184018a90526060820189905242608083015260a0820188905295855284845282852082865290935292208151815592519192909160018201906102729082611014565b50604082015160028201906102879082611014565b50606082015181600301556080820151816004015560a082015181600501559050507f3b10aae8625b5b275fde49fdec47166cf0b0f2382321bf9bd08e5c15283910238186868642876040516102e296959493929190610f41565b60405180910390a1336000908152600260205260408120805491610305836110ea565b91905055505050505050565b3360008181526003602090815260408083205481516060810183528181528084018881528184018890529585526001808552838620838752909452919093208151815593519293909290918201906103699082611014565b506040820151600282019061037e9082611014565b509050507f22c31dca291d7f417aeb56deed394f40bc020be39668f3b25e7c0414c21526df8184846040516103b593929190610ef3565b60405180910390a13360009081526003602052604081208054916103d8836110ea565b9190505550505050565b336000908152602081815260408083208584528252808320815160c0810190925280548252600181018054929391929184019161041e90610f8b565b80601f016020809104026020016040519081016040528092919081815260200182805461044a90610f8b565b80156104975780601f1061046c57610100808354040283529160200191610497565b820191906000526020600020905b81548152906001019060200180831161047a57829003601f168201915b505050505081526020016002820180546104b090610f8b565b80601f01602080910402602001604051908101604052809291908181526020018280546104dc90610f8b565b80156105295780601f106104fe57610100808354040283529160200191610529565b820191906000526020600020905b81548152906001019060200180831161050c57829003601f168201915b505050505081526020016003820154815260200160048201548152602001600582015481525050905081816060018181516105649190611103565b905250336000908152602081815260408083208684528252909120825181559082015182919060018201906105999082611014565b50604082015160028201906105ae9082611014565b50606082015160038201556080820151600482015560a09091015160059091015560408051848152602081018490527f5151f00564df0f1b8559da0cac16b19ff04960adde329fe2efcbee9b90d1de66910160405180910390a1505050565b600160208181526000938452604080852090915291835291208054918101805461063690610f8b565b80601f016020809104026020016040519081016040528092919081815260200182805461066290610f8b565b80156106af5780601f10610684576101008083540402835291602001916106af565b820191906000526020600020905b81548152906001019060200180831161069257829003601f168201915b5050505050908060020180546106c490610f8b565b80601f01602080910402602001604051908101604052809291908181526020018280546106f090610f8b565b801561073d5780601f106107125761010080835404028352916020019161073d565b820191906000526020600020905b81548152906001019060200180831161072057829003601f168201915b5050505050905083565b33600090815260026020526040812054606090819083908190819087106107a55760405162461bcd60e51b815260206004820152601260248201527150726f64756374206e6f7420666f756e642160701b6044820152606401610201565b336000908152602081815260408083208a845290915290208054600382015460048301546005840154600185018054909360028701939092909185906107ea90610f8b565b80601f016020809104026020016040519081016040528092919081815260200182805461081690610f8b565b80156108635780601f1061083857610100808354040283529160200191610863565b820191906000526020600020905b81548152906001019060200180831161084657829003601f168201915b5050505050945083805461087690610f8b565b80601f01602080910402602001604051908101604052809291908181526020018280546108a290610f8b565b80156108ef5780601f106108c4576101008083540402835291602001916108ef565b820191906000526020600020905b8154815290600101906020018083116108d257829003601f168201915b505050505093509650965096509650965096505091939550919395565b336000908152602081815260408083208484529091528120818155906109356001830182610c52565b610943600283016000610c52565b506000600382018190556004820181905560059091015550565b33600090815260036020526040812054606090819084106109b65760405162461bcd60e51b815260206004820152601360248201527243617465676f7279206e6f7420666f756e642160681b6044820152606401610201565b33600090815260016020818152604080842088855290915290912080549181018054919291600284019082906109eb90610f8b565b80601f0160208091040260200160405190810160405280929190818152602001828054610a1790610f8b565b8015610a645780601f10610a3957610100808354040283529160200191610a64565b820191906000526020600020905b815481529060010190602001808311610a4757829003601f168201915b50505050509150808054610a7790610f8b565b80601f0160208091040260200160405190810160405280929190818152602001828054610aa390610f8b565b8015610af05780601f10610ac557610100808354040283529160200191610af0565b820191906000526020600020905b815481529060010190602001808311610ad357829003601f168201915b50505050509050935093509350509193909250565b600060208181529281526040808220909352908152208054600182018054919291610b2f90610f8b565b80601f0160208091040260200160405190810160405280929190818152602001828054610b5b90610f8b565b8015610ba85780601f10610b7d57610100808354040283529160200191610ba8565b820191906000526020600020905b815481529060010190602001808311610b8b57829003601f168201915b505050505090806002018054610bbd90610f8b565b80601f0160208091040260200160405190810160405280929190818152602001828054610be990610f8b565b8015610c365780601f10610c0b57610100808354040283529160200191610c36565b820191906000526020600020905b815481529060010190602001808311610c1957829003601f168201915b5050505050908060030154908060040154908060050154905086565b508054610c5e90610f8b565b6000825580601f10610c6e575050565b601f016020900490600052602060002090810190610c8c9190610c8f565b50565b5b80821115610ca45760008155600101610c90565b5090565b634e487b7160e01b600052604160045260246000fd5b600082601f830112610ccf57600080fd5b813567ffffffffffffffff80821115610cea57610cea610ca8565b604051601f8301601f19908116603f01168101908282118183101715610d1257610d12610ca8565b81604052838152866020858801011115610d2b57600080fd5b836020870160208301376000602085830101528094505050505092915050565b60008060008060808587031215610d6157600080fd5b843567ffffffffffffffff80821115610d7957600080fd5b610d8588838901610cbe565b95506020870135915080821115610d9b57600080fd5b50610da887828801610cbe565b949794965050505060408301359260600135919050565b60008060408385031215610dd257600080fd5b823567ffffffffffffffff80821115610dea57600080fd5b610df686838701610cbe565b93506020850135915080821115610e0c57600080fd5b50610e1985828601610cbe565b9150509250929050565b80356001600160a01b0381168114610e3a57600080fd5b919050565b600060208284031215610e5157600080fd5b610e5a82610e23565b9392505050565b60008060408385031215610e7457600080fd5b50508035926020909101359150565b60008060408385031215610e9657600080fd5b610e9f83610e23565b946020939093013593505050565b6000815180845260005b81811015610ed357602081850181015186830182015201610eb7565b506000602082860101526020601f19601f83011685010191505092915050565b838152606060208201526000610f0c6060830185610ead565b8281036040840152610f1e8185610ead565b9695505050505050565b600060208284031215610f3a57600080fd5b5035919050565b86815260c060208201526000610f5a60c0830188610ead565b8281036040840152610f6c8188610ead565b60608401969096525050608081019290925260a0909101529392505050565b600181811c90821680610f9f57607f821691505b602082108103610fbf57634e487b7160e01b600052602260045260246000fd5b50919050565b601f82111561100f57600081815260208120601f850160051c81016020861015610fec5750805b601f850160051c820191505b8181101561100b57828155600101610ff8565b5050505b505050565b815167ffffffffffffffff81111561102e5761102e610ca8565b6110428161103c8454610f8b565b84610fc5565b602080601f831160018114611077576000841561105f5750858301515b600019600386901b1c1916600185901b17855561100b565b600085815260208120601f198616915b828110156110a657888601518255948401946001909101908401611087565b50858210156110c45787850151600019600388901b60f8161c191681555b5050505050600190811b01905550565b634e487b7160e01b600052601160045260246000fd5b6000600182016110fc576110fc6110d4565b5060010190565b81810381811115611116576111166110d4565b9291505056fea264697066735822122005016cfa17ff6c902d1baaa468b8341ece6143292d4b717792f0b3fb2c25438664736f6c63430008120033",
  "immutableReferences": {},
  "source": "// SPDX-License-Identifier: MIT\r\npragma solidity >=0.4.22 <0.9.0;\r\n\r\ncontract ProductsContract {\r\n  \r\n  constructor() {}\r\n\r\n  struct Product {\r\n    uint id;\r\n    string productName;\r\n    string productDescription;\r\n    uint quantity;\r\n    uint createdAt;\r\n    uint categoryId;\r\n  }\r\n\r\n  struct Category {\r\n    uint id;\r\n    string categoryName;\r\n    string categoryDescription;\r\n  }\r\n\r\n  event ProductCreated (\r\n    uint id, string productName, string productDescription, uint quantity, uint createdAt, uint productCategory\r\n  );\r\n\r\n  event CategoryCreated(\r\n    uint id, string categoryName, string categoryDescription\r\n  );\r\n\r\n  event ProductDecreased ( \r\n    uint id, uint quantity\r\n  );\r\n\r\n  mapping (address => mapping(uint => Product)) public products;\r\n  mapping (address => mapping(uint => Category)) public categories;\r\n  mapping (address => uint) public productsCounter;\r\n  mapping (address => uint) public categoriesCounter;\r\n\r\n  function addProduct(string memory _productName, string memory _productDescription, uint _quantity, uint _categoryId) public {\r\n    require(_categoryId < categoriesCounter[msg.sender], 'Category not found!');\r\n    \r\n    uint counter = productsCounter[msg.sender];\r\n    products[msg.sender][counter] = Product(counter, _productName, _productDescription, _quantity, block.timestamp, _categoryId);\r\n    emit ProductCreated(counter, _productName, _productDescription, _quantity, block.timestamp, _categoryId);\r\n    productsCounter[msg.sender]++;\r\n  }\r\n\r\n  function addCategory(string memory _name, string memory _description) public {\r\n    uint counter = categoriesCounter[msg.sender];\r\n    categories[msg.sender][counter] = Category(counter, _name, _description);\r\n    emit CategoryCreated(counter, _name, _description);    \r\n    categoriesCounter[msg.sender]++;\r\n  }\r\n\r\n  function decreaseProductQuantity(uint _id, uint _quantity) public {\r\n    Product memory product = products[msg.sender][_id];\r\n    product.quantity -= _quantity;\r\n    products[msg.sender][_id] = product;\r\n    emit ProductDecreased(_id, _quantity); \r\n  }\r\n\r\n  function deleteProduct(uint _id) public {\r\n    delete products[msg.sender][_id];\r\n  }\r\n\r\n  function getProduct(uint _id) public view returns (uint, string memory, string memory, uint, uint, uint) {\r\n    require(_id < productsCounter[msg.sender], 'Product not found!');\r\n    Product storage product = products[msg.sender][_id];\r\n    return (product.id, product.productName, product.productDescription, product.quantity, product.createdAt, product.categoryId);\r\n  }\r\n\r\n  function getCategory(uint _id) public view returns (uint, string memory, string memory) {\r\n    require(_id < categoriesCounter[msg.sender], 'Category not found!');\r\n    Category storage category = categories[msg.sender][_id];\r\n    return (category.id, category.categoryName, category.categoryDescription);\r\n  }\r\n\r\n}\r\n",
  "sourcePath": "C:\\Users\\loren\\Downloads\\Projects\\blockchain\\blockchain-inventory-system\\contracts\\ProductsContract.sol",
  "compiler": {
    "name": "solc",
    "version": "0.8.18+commit.87f61d96.Emscripten.clang"
  },
  "schemaVersion": "3.4.12",
  "updatedAt": "2023-10-12T18:40:37.489Z",
  "networkType": "ethereum",
  "devdoc": {
    "kind": "dev",
    "methods": {},
    "version": 1
  },
  "userdoc": {
    "kind": "user",
    "methods": {},
    "version": 1
  }
}