{
  "contractName": "ProductsContract",
  "abi": [
    {
      "inputs": [],
      "stateMutability": "nonpayable",
      "type": "constructor"
    },
    {
      "anonymous": false,
      "inputs": [
        {
          "indexed": false,
          "internalType": "uint256",
          "name": "id",
          "type": "uint256"
        },
        {
          "indexed": false,
          "internalType": "string",
          "name": "productName",
          "type": "string"
        },
        {
          "indexed": false,
          "internalType": "string",
          "name": "productDescription",
          "type": "string"
        },
        {
          "indexed": false,
          "internalType": "uint256",
          "name": "quantity",
          "type": "uint256"
        },
        {
          "indexed": false,
          "internalType": "uint256",
          "name": "createdAt",
          "type": "uint256"
        }
      ],
      "name": "ProductCreated",
      "type": "event"
    },
    {
      "anonymous": false,
      "inputs": [
        {
          "indexed": false,
          "internalType": "uint256",
          "name": "id",
          "type": "uint256"
        },
        {
          "indexed": false,
          "internalType": "uint256",
          "name": "quantity",
          "type": "uint256"
        }
      ],
      "name": "ProductDecreased",
      "type": "event"
    },
    {
      "inputs": [
        {
          "internalType": "address",
          "name": "",
          "type": "address"
        },
        {
          "internalType": "uint256",
          "name": "",
          "type": "uint256"
        }
      ],
      "name": "products",
      "outputs": [
        {
          "internalType": "uint256",
          "name": "id",
          "type": "uint256"
        },
        {
          "internalType": "string",
          "name": "productName",
          "type": "string"
        },
        {
          "internalType": "string",
          "name": "productDescription",
          "type": "string"
        },
        {
          "internalType": "uint256",
          "name": "quantity",
          "type": "uint256"
        },
        {
          "internalType": "uint256",
          "name": "createdAt",
          "type": "uint256"
        }
      ],
      "stateMutability": "view",
      "type": "function",
      "constant": true
    },
    {
      "inputs": [
        {
          "internalType": "address",
          "name": "",
          "type": "address"
        }
      ],
      "name": "productsCounter",
      "outputs": [
        {
          "internalType": "uint256",
          "name": "",
          "type": "uint256"
        }
      ],
      "stateMutability": "view",
      "type": "function",
      "constant": true
    },
    {
      "inputs": [
        {
          "internalType": "string",
          "name": "_productName",
          "type": "string"
        },
        {
          "internalType": "string",
          "name": "_productDescription",
          "type": "string"
        },
        {
          "internalType": "uint256",
          "name": "_quantity",
          "type": "uint256"
        }
      ],
      "name": "addProduct",
      "outputs": [],
      "stateMutability": "nonpayable",
      "type": "function"
    },
    {
      "inputs": [
        {
          "internalType": "uint256",
          "name": "_id",
          "type": "uint256"
        },
        {
          "internalType": "uint256",
          "name": "_quantity",
          "type": "uint256"
        }
      ],
      "name": "decreaseProductQuantity",
      "outputs": [],
      "stateMutability": "nonpayable",
      "type": "function"
    },
    {
      "inputs": [
        {
          "internalType": "uint256",
          "name": "_id",
          "type": "uint256"
        }
      ],
      "name": "getProduct",
      "outputs": [
        {
          "internalType": "uint256",
          "name": "",
          "type": "uint256"
        },
        {
          "internalType": "string",
          "name": "",
          "type": "string"
        },
        {
          "internalType": "string",
          "name": "",
          "type": "string"
        },
        {
          "internalType": "uint256",
          "name": "",
          "type": "uint256"
        },
        {
          "internalType": "uint256",
          "name": "",
          "type": "uint256"
        }
      ],
      "stateMutability": "view",
      "type": "function",
      "constant": true
    }
  ],
  "bytecode": "0x60806040523480156200001157600080fd5b506200006f604051806040016040528060098152602001681b985b59481d195cdd60ba1b8152506040518060400160405280601081526020016f19195cd8dc9a5c1d1a5bdb881d195cdd60821b81525060436200008360201b60201c565b6200007d600060076200017e565b620005f6565b33600081815260016020818152604080842054815160a0810183528181528084018a81528184018a9052606082018990524260808301529686528584528286208287529093529320815181559351929390929091820190620000e6908262000450565b5060408201516002820190620000fd908262000450565b5060608201518160030155608082015181600401559050507f925d44cac5c3c8d7cc237ff3294f4ea7d55bb90b068848814cbbe534bb7ea6a581858585426040516200014e95949392919062000564565b60405180910390a13360009081526001602052604081208054916200017383620005be565b919050555050505050565b336000908152602081815260408083208584528252808320815160a08101909252805482526001810180549293919291840191620001bc90620003c1565b80601f0160208091040260200160405190810160405280929190818152602001828054620001ea90620003c1565b80156200023b5780601f106200020f576101008083540402835291602001916200023b565b820191906000526020600020905b8154815290600101906020018083116200021d57829003601f168201915b505050505081526020016002820180546200025690620003c1565b80601f01602080910402602001604051908101604052809291908181526020018280546200028490620003c1565b8015620002d55780601f10620002a957610100808354040283529160200191620002d5565b820191906000526020600020905b815481529060010190602001808311620002b757829003601f168201915b505050505081526020016003820154815260200160048201548152505090508181606001818151620003089190620005da565b905250336000908152602081815260408083208684528252909120825181559082015182919060018201906200033f908262000450565b506040820151600282019062000356908262000450565b506060820151600382015560809091015160049091015560408051848152602081018490527f5151f00564df0f1b8559da0cac16b19ff04960adde329fe2efcbee9b90d1de66910160405180910390a1505050565b634e487b7160e01b600052604160045260246000fd5b600181811c90821680620003d657607f821691505b602082108103620003f757634e487b7160e01b600052602260045260246000fd5b50919050565b601f8211156200044b57600081815260208120601f850160051c81016020861015620004265750805b601f850160051c820191505b81811015620004475782815560010162000432565b5050505b505050565b81516001600160401b038111156200046c576200046c620003ab565b62000484816200047d8454620003c1565b84620003fd565b602080601f831160018114620004bc5760008415620004a35750858301515b600019600386901b1c1916600185901b17855562000447565b600085815260208120601f198616915b82811015620004ed57888601518255948401946001909101908401620004cc565b50858210156200050c5787850151600019600388901b60f8161c191681555b5050505050600190811b01905550565b6000815180845260005b81811015620005445760208185018101518683018201520162000526565b506000602082860101526020601f19601f83011685010191505092915050565b85815260a0602082015260006200057f60a08301876200051c565b82810360408401526200059381876200051c565b60608401959095525050608001529392505050565b634e487b7160e01b600052601160045260246000fd5b600060018201620005d357620005d3620005a8565b5060010190565b81810381811115620005f057620005f0620005a8565b92915050565b610afd80620006066000396000f3fe608060405234801561001057600080fd5b50600436106100575760003560e01c806336d83f6c1461005c578063551d27c81461008f578063b9db15b4146100a4578063f28ea1c1146100c8578063fc640949146100db575b600080fd5b61007c61006a366004610719565b60016020526000908152604090205481565b6040519081526020015b60405180910390f35b6100a261009d36600461073b565b6100ee565b005b6100b76100b236600461075d565b610305565b6040516100869594939291906107bc565b6100a26100d636600461089f565b6104c3565b6100b76100e936600461090c565b6105b6565b336000908152602081815260408083208584528252808320815160a0810190925280548252600181018054929391929184019161012a90610936565b80601f016020809104026020016040519081016040528092919081815260200182805461015690610936565b80156101a35780601f10610178576101008083540402835291602001916101a3565b820191906000526020600020905b81548152906001019060200180831161018657829003601f168201915b505050505081526020016002820180546101bc90610936565b80601f01602080910402602001604051908101604052809291908181526020018280546101e890610936565b80156102355780601f1061020a57610100808354040283529160200191610235565b820191906000526020600020905b81548152906001019060200180831161021857829003601f168201915b5050505050815260200160038201548152602001600482015481525050905081816060018181516102669190610986565b9052503360009081526020818152604080832086845282529091208251815590820151829190600182019061029b90826109ee565b50604082015160028201906102b090826109ee565b506060820151600382015560809091015160049091015560408051848152602081018490527f5151f00564df0f1b8559da0cac16b19ff04960adde329fe2efcbee9b90d1de66910160405180910390a1505050565b3360009081526001602052604081205460609081908390819086106103655760405162461bcd60e51b815260206004820152601260248201527150726f64756374206e6f7420666f756e642160701b604482015260640160405180910390fd5b33600090815260208181526040808320898452909152902080546003820154600483015460018401805490926002860192909184906103a390610936565b80601f01602080910402602001604051908101604052809291908181526020018280546103cf90610936565b801561041c5780601f106103f15761010080835404028352916020019161041c565b820191906000526020600020905b8154815290600101906020018083116103ff57829003601f168201915b5050505050935082805461042f90610936565b80601f016020809104026020016040519081016040528092919081815260200182805461045b90610936565b80156104a85780601f1061047d576101008083540402835291602001916104a8565b820191906000526020600020905b81548152906001019060200180831161048b57829003601f168201915b50505050509250955095509550955095505091939590929450565b33600081815260016020818152604080842054815160a0810183528181528084018a81528184018a905260608201899052426080830152968652858452828620828752909352932081518155935192939092909182019061052490826109ee565b506040820151600282019061053990826109ee565b5060608201518160030155608082015181600401559050507f925d44cac5c3c8d7cc237ff3294f4ea7d55bb90b068848814cbbe534bb7ea6a581858585426040516105889594939291906107bc565b60405180910390a13360009081526001602052604081208054916105ab83610aae565b919050555050505050565b6000602081815292815260408082209093529081522080546001820180549192916105e090610936565b80601f016020809104026020016040519081016040528092919081815260200182805461060c90610936565b80156106595780601f1061062e57610100808354040283529160200191610659565b820191906000526020600020905b81548152906001019060200180831161063c57829003601f168201915b50505050509080600201805461066e90610936565b80601f016020809104026020016040519081016040528092919081815260200182805461069a90610936565b80156106e75780601f106106bc576101008083540402835291602001916106e7565b820191906000526020600020905b8154815290600101906020018083116106ca57829003601f168201915b5050505050908060030154908060040154905085565b80356001600160a01b038116811461071457600080fd5b919050565b60006020828403121561072b57600080fd5b610734826106fd565b9392505050565b6000806040838503121561074e57600080fd5b50508035926020909101359150565b60006020828403121561076f57600080fd5b5035919050565b6000815180845260005b8181101561079c57602081850181015186830182015201610780565b506000602082860101526020601f19601f83011685010191505092915050565b85815260a0602082015260006107d560a0830187610776565b82810360408401526107e78187610776565b60608401959095525050608001529392505050565b634e487b7160e01b600052604160045260246000fd5b600082601f83011261082357600080fd5b813567ffffffffffffffff8082111561083e5761083e6107fc565b604051601f8301601f19908116603f01168101908282118183101715610866576108666107fc565b8160405283815286602085880101111561087f57600080fd5b836020870160208301376000602085830101528094505050505092915050565b6000806000606084860312156108b457600080fd5b833567ffffffffffffffff808211156108cc57600080fd5b6108d887838801610812565b945060208601359150808211156108ee57600080fd5b506108fb86828701610812565b925050604084013590509250925092565b6000806040838503121561091f57600080fd5b610928836106fd565b946020939093013593505050565b600181811c9082168061094a57607f821691505b60208210810361096a57634e487b7160e01b600052602260045260246000fd5b50919050565b634e487b7160e01b600052601160045260246000fd5b8181038181111561099957610999610970565b92915050565b601f8211156109e957600081815260208120601f850160051c810160208610156109c65750805b601f850160051c820191505b818110156109e5578281556001016109d2565b5050505b505050565b815167ffffffffffffffff811115610a0857610a086107fc565b610a1c81610a168454610936565b8461099f565b602080601f831160018114610a515760008415610a395750858301515b600019600386901b1c1916600185901b1785556109e5565b600085815260208120601f198616915b82811015610a8057888601518255948401946001909101908401610a61565b5085821015610a9e5787850151600019600388901b60f8161c191681555b5050505050600190811b01905550565b600060018201610ac057610ac0610970565b506001019056fea2646970667358221220bcc44edb4f653a366480263f7b5bb04969adb9f86a22854a3924e39b4d40994e64736f6c63430008120033",
  "immutableReferences": {},
  "source": "// SPDX-License-Identifier: MIT\npragma solidity >=0.4.22 <0.9.0;\n\ncontract ProductsContract {\n  \n  constructor() {\n    addProduct('name test', 'description test', 67);\n    decreaseProductQuantity(0, 7);\n  }\n\n  struct Product {\n    uint id;\n    string productName;\n    string productDescription;\n    uint quantity;\n    uint createdAt;\n  }\n\n  event ProductCreated (\n    uint id,\n    string productName,\n    string productDescription,\n    uint quantity,\n    uint createdAt\n  );\n\n  event ProductDecreased (\n    uint id,\n    uint quantity\n  );\n\n  mapping (address => mapping(uint => Product)) public products;\n  mapping (address => uint) public productsCounter;\n\n  function addProduct(string memory _productName, string memory _productDescription, uint _quantity) public {\n    uint counter = productsCounter[msg.sender];\n    products[msg.sender][counter] = Product(counter, _productName, _productDescription, _quantity, block.timestamp);\n    emit ProductCreated(counter, _productName, _productDescription, _quantity, block.timestamp);\n    productsCounter[msg.sender]++;\n  }\n\n  function decreaseProductQuantity(uint _id, uint _quantity) public {\n    Product memory product = products[msg.sender][_id];\n    product.quantity -= _quantity;\n    products[msg.sender][_id] = product;\n    emit ProductDecreased(_id, _quantity); \n  }\n\n  function getProduct(uint _id) public view returns (uint, string memory, string memory, uint, uint) {\n    require(_id < productsCounter[msg.sender], 'Product not found!');\n    Product storage product = products[msg.sender][_id];\n    return (product.id, product.productName, product.productDescription, product.quantity, product.createdAt);\n  }\n\n}\n",
  "sourcePath": "/home/loren/Projects/javascript/blockchain/blockchain-inventory-system/contracts/ProductsContract.sol",
  "compiler": {
    "name": "solc",
    "version": "0.8.18+commit.87f61d96.Emscripten.clang"
  },
  "schemaVersion": "3.4.12",
  "updatedAt": "2023-09-20T16:14:29.142Z",
  "networkType": "ethereum",
  "devdoc": {
    "kind": "dev",
    "methods": {},
    "version": 1
  },
  "userdoc": {
    "kind": "user",
    "methods": {},
    "version": 1
  }
}