{
  "contractName": "ProductsContract",
  "abi": [
    {
      "inputs": [],
      "stateMutability": "nonpayable",
      "type": "constructor"
    },
    {
      "anonymous": false,
      "inputs": [
        {
          "indexed": false,
          "internalType": "uint256",
          "name": "id",
          "type": "uint256"
        },
        {
          "indexed": false,
          "internalType": "string",
          "name": "categoryName",
          "type": "string"
        },
        {
          "indexed": false,
          "internalType": "string",
          "name": "categoryDescription",
          "type": "string"
        },
        {
          "indexed": false,
          "internalType": "uint256",
          "name": "createdAt",
          "type": "uint256"
        }
      ],
      "name": "CategoryCreated",
      "type": "event"
    },
    {
      "anonymous": false,
      "inputs": [
        {
          "indexed": false,
          "internalType": "uint256",
          "name": "id",
          "type": "uint256"
        },
        {
          "indexed": false,
          "internalType": "string",
          "name": "categoryName",
          "type": "string"
        },
        {
          "indexed": false,
          "internalType": "string",
          "name": "categoryDescription",
          "type": "string"
        },
        {
          "indexed": false,
          "internalType": "uint256",
          "name": "createdAt",
          "type": "uint256"
        }
      ],
      "name": "CategoryEdited",
      "type": "event"
    },
    {
      "anonymous": false,
      "inputs": [
        {
          "indexed": false,
          "internalType": "uint256",
          "name": "id",
          "type": "uint256"
        },
        {
          "indexed": false,
          "internalType": "string",
          "name": "productName",
          "type": "string"
        },
        {
          "indexed": false,
          "internalType": "string",
          "name": "productDescription",
          "type": "string"
        },
        {
          "indexed": false,
          "internalType": "uint256",
          "name": "quantity",
          "type": "uint256"
        },
        {
          "indexed": false,
          "internalType": "uint256",
          "name": "createdAt",
          "type": "uint256"
        },
        {
          "indexed": false,
          "internalType": "uint256",
          "name": "productCategory",
          "type": "uint256"
        },
        {
          "indexed": false,
          "internalType": "string",
          "name": "productOutput",
          "type": "string"
        }
      ],
      "name": "ProductCreated",
      "type": "event"
    },
    {
      "anonymous": false,
      "inputs": [
        {
          "indexed": false,
          "internalType": "uint256",
          "name": "id",
          "type": "uint256"
        },
        {
          "indexed": false,
          "internalType": "string",
          "name": "categoryName",
          "type": "string"
        },
        {
          "indexed": false,
          "internalType": "string",
          "name": "categoryDescription",
          "type": "string"
        },
        {
          "indexed": false,
          "internalType": "uint256",
          "name": "quantity",
          "type": "uint256"
        },
        {
          "indexed": false,
          "internalType": "uint256",
          "name": "createdAt",
          "type": "uint256"
        },
        {
          "indexed": false,
          "internalType": "string",
          "name": "productOutput",
          "type": "string"
        }
      ],
      "name": "ProductEdited",
      "type": "event"
    },
    {
      "inputs": [
        {
          "internalType": "address",
          "name": "",
          "type": "address"
        },
        {
          "internalType": "uint256",
          "name": "",
          "type": "uint256"
        }
      ],
      "name": "categories",
      "outputs": [
        {
          "internalType": "uint256",
          "name": "id",
          "type": "uint256"
        },
        {
          "internalType": "string",
          "name": "categoryName",
          "type": "string"
        },
        {
          "internalType": "string",
          "name": "categoryDescription",
          "type": "string"
        },
        {
          "internalType": "uint256",
          "name": "createdAt",
          "type": "uint256"
        }
      ],
      "stateMutability": "view",
      "type": "function",
      "constant": true
    },
    {
      "inputs": [
        {
          "internalType": "address",
          "name": "",
          "type": "address"
        }
      ],
      "name": "categoriesCounter",
      "outputs": [
        {
          "internalType": "uint256",
          "name": "",
          "type": "uint256"
        }
      ],
      "stateMutability": "view",
      "type": "function",
      "constant": true
    },
    {
      "inputs": [
        {
          "internalType": "address",
          "name": "",
          "type": "address"
        },
        {
          "internalType": "uint256",
          "name": "",
          "type": "uint256"
        }
      ],
      "name": "products",
      "outputs": [
        {
          "internalType": "uint256",
          "name": "id",
          "type": "uint256"
        },
        {
          "internalType": "string",
          "name": "productName",
          "type": "string"
        },
        {
          "internalType": "string",
          "name": "productDescription",
          "type": "string"
        },
        {
          "internalType": "uint256",
          "name": "quantity",
          "type": "uint256"
        },
        {
          "internalType": "uint256",
          "name": "createdAt",
          "type": "uint256"
        },
        {
          "internalType": "uint256",
          "name": "categoryId",
          "type": "uint256"
        },
        {
          "internalType": "string",
          "name": "productOutput",
          "type": "string"
        }
      ],
      "stateMutability": "view",
      "type": "function",
      "constant": true
    },
    {
      "inputs": [
        {
          "internalType": "address",
          "name": "",
          "type": "address"
        }
      ],
      "name": "productsCounter",
      "outputs": [
        {
          "internalType": "uint256",
          "name": "",
          "type": "uint256"
        }
      ],
      "stateMutability": "view",
      "type": "function",
      "constant": true
    },
    {
      "inputs": [
        {
          "internalType": "string",
          "name": "_productName",
          "type": "string"
        },
        {
          "internalType": "string",
          "name": "_productDescription",
          "type": "string"
        },
        {
          "internalType": "uint256",
          "name": "_quantity",
          "type": "uint256"
        },
        {
          "internalType": "uint256",
          "name": "_categoryId",
          "type": "uint256"
        },
        {
          "internalType": "string",
          "name": "_productOutput",
          "type": "string"
        }
      ],
      "name": "addProduct",
      "outputs": [],
      "stateMutability": "nonpayable",
      "type": "function"
    },
    {
      "inputs": [
        {
          "internalType": "string",
          "name": "_name",
          "type": "string"
        },
        {
          "internalType": "string",
          "name": "_description",
          "type": "string"
        }
      ],
      "name": "addCategory",
      "outputs": [],
      "stateMutability": "nonpayable",
      "type": "function"
    },
    {
      "inputs": [
        {
          "internalType": "uint256",
          "name": "_id",
          "type": "uint256"
        },
        {
          "internalType": "string",
          "name": "_productName",
          "type": "string"
        },
        {
          "internalType": "string",
          "name": "_productDescription",
          "type": "string"
        },
        {
          "internalType": "uint256",
          "name": "_quantity",
          "type": "uint256"
        },
        {
          "internalType": "string",
          "name": "_productOutput",
          "type": "string"
        }
      ],
      "name": "editProduct",
      "outputs": [],
      "stateMutability": "nonpayable",
      "type": "function"
    },
    {
      "inputs": [
        {
          "internalType": "uint256",
          "name": "_id",
          "type": "uint256"
        },
        {
          "internalType": "string",
          "name": "_categoryName",
          "type": "string"
        },
        {
          "internalType": "string",
          "name": "_categoryDescription",
          "type": "string"
        }
      ],
      "name": "editCategory",
      "outputs": [],
      "stateMutability": "nonpayable",
      "type": "function"
    },
    {
      "inputs": [
        {
          "internalType": "uint256",
          "name": "_id",
          "type": "uint256"
        }
      ],
      "name": "deleteProduct",
      "outputs": [],
      "stateMutability": "nonpayable",
      "type": "function"
    },
    {
      "inputs": [
        {
          "internalType": "uint256",
          "name": "_id",
          "type": "uint256"
        }
      ],
      "name": "getProduct",
      "outputs": [
        {
          "internalType": "uint256",
          "name": "",
          "type": "uint256"
        },
        {
          "internalType": "string",
          "name": "",
          "type": "string"
        },
        {
          "internalType": "string",
          "name": "",
          "type": "string"
        },
        {
          "internalType": "uint256",
          "name": "",
          "type": "uint256"
        },
        {
          "internalType": "uint256",
          "name": "",
          "type": "uint256"
        },
        {
          "internalType": "uint256",
          "name": "",
          "type": "uint256"
        }
      ],
      "stateMutability": "view",
      "type": "function",
      "constant": true
    },
    {
      "inputs": [
        {
          "internalType": "uint256",
          "name": "_id",
          "type": "uint256"
        }
      ],
      "name": "getCategory",
      "outputs": [
        {
          "internalType": "uint256",
          "name": "",
          "type": "uint256"
        },
        {
          "internalType": "string",
          "name": "",
          "type": "string"
        },
        {
          "internalType": "string",
          "name": "",
          "type": "string"
        }
      ],
      "stateMutability": "view",
      "type": "function",
      "constant": true
    }
  ],
  "bytecode": "0x608060405234801561001057600080fd5b50611715806100206000396000f3fe608060405234801561001057600080fd5b50600436106100a95760003560e01c8063b90474d511610071578063b90474d51461014c578063b9db15b41461015f578063ed90c7b714610184578063edd1de4d14610197578063f3052d26146101aa578063fc640949146101cc57600080fd5b80631bf703b2146100ae57806336d83f6c146100c35780636daf0fbb146100f6578063898ceb20146101095780639700775314610129575b600080fd5b6100c16100bc366004611126565b6101f2565b005b6100e36100d13660046111a6565b60026020526000908152604090205481565b6040519081526020015b60405180910390f35b6100c16101043660046111c8565b6102d5565b6100e36101173660046111a6565b60036020526000908152604090205481565b61013c610137366004611264565b610454565b6040516100ed94939291906112d4565b6100c161015a366004611311565b610594565b61017261016d366004611393565b610883565b6040516100ed969594939291906113ac565b6100c1610192366004611393565b610a48565b6100c16101a53660046113f6565b610aac565b6101bd6101b8366004611393565b610caa565b6040516100ed93929190611463565b6101df6101da366004611264565b610e52565b6040516100ed9796959493929190611498565b336000818152600360209081526040808320548151608081018352818152808401888152818401889052426060830152958552600180855283862083875290945291909320815181559351929390929091820190610250908261157f565b5060408201516002820190610265908261157f565b50606082015181600301559050507f05053191630656a0317955178eac6c748364e24ccbf6e61b8cebf7c86157fbc1818484426040516102a894939291906112d4565b60405180910390a13360009081526003602052604081208054916102cb83611655565b9190505550505050565b33600090815260036020526040902054821061032e5760405162461bcd60e51b815260206004820152601360248201527243617465676f7279206e6f7420666f756e642160681b60448201526064015b60405180910390fd5b33600081815260026020908152604080832054815160e0810183528181528084018b81528184018b9052606082018a905242608083015260a0820189905260c08201889052958552848452828520828652909352922081518155925191929091600182019061039d908261157f565b50604082015160028201906103b2908261157f565b50606082015160038201556080820151600482015560a0820151600582015560c082015160068201906103e5908261157f565b509050507f61d5fd6ecdc3c5bb7d6a338f3f009eb4aca95ef33bc2905d45361094a9c7e9ca818787874288886040516104249796959493929190611498565b60405180910390a133600090815260026020526040812080549161044783611655565b9190505550505050505050565b600160208181526000938452604080852090915291835291208054918101805461047d906114f7565b80601f01602080910402602001604051908101604052809291908181526020018280546104a9906114f7565b80156104f65780601f106104cb576101008083540402835291602001916104f6565b820191906000526020600020905b8154815290600101906020018083116104d957829003601f168201915b50505050509080600201805461050b906114f7565b80601f0160208091040260200160405190810160405280929190818152602001828054610537906114f7565b80156105845780601f1061055957610100808354040283529160200191610584565b820191906000526020600020905b81548152906001019060200180831161056757829003601f168201915b5050505050908060030154905084565b336000908152602081815260408083208884528252808320815160e081019092528054825260018101805492939192918401916105d0906114f7565b80601f01602080910402602001604051908101604052809291908181526020018280546105fc906114f7565b80156106495780601f1061061e57610100808354040283529160200191610649565b820191906000526020600020905b81548152906001019060200180831161062c57829003601f168201915b50505050508152602001600282018054610662906114f7565b80601f016020809104026020016040519081016040528092919081815260200182805461068e906114f7565b80156106db5780601f106106b0576101008083540402835291602001916106db565b820191906000526020600020905b8154815290600101906020018083116106be57829003601f168201915b50505050508152602001600382015481526020016004820154815260200160058201548152602001600682018054610712906114f7565b80601f016020809104026020016040519081016040528092919081815260200182805461073e906114f7565b801561078b5780601f106107605761010080835404028352916020019161078b565b820191906000526020600020905b81548152906001019060200180831161076e57829003601f168201915b50505091909252505050602081018690526040810185905260608101805191925084916107b990839061166e565b905250336000908152602081815260408083208984528252909120825181559082015182919060018201906107ee908261157f565b5060408201516002820190610803908261157f565b50606082015160038201556080820151600482015560a0820151600582015560c08201516006820190610836908261157f565b509050507f95570c88a4860d2273558d846d80b2eb33be15efeefe428dc9b9b2ead46e681586868686428760405161087396959493929190611687565b60405180910390a1505050505050565b33600090815260026020526040812054606090819083908190819087106108e15760405162461bcd60e51b815260206004820152601260248201527150726f64756374206e6f7420666f756e642160701b6044820152606401610325565b336000908152602081815260408083208a84529091529020805460038201546004830154600584015460018501805490936002870193909290918590610926906114f7565b80601f0160208091040260200160405190810160405280929190818152602001828054610952906114f7565b801561099f5780601f106109745761010080835404028352916020019161099f565b820191906000526020600020905b81548152906001019060200180831161098257829003601f168201915b505050505094508380546109b2906114f7565b80601f01602080910402602001604051908101604052809291908181526020018280546109de906114f7565b8015610a2b5780601f10610a0057610100808354040283529160200191610a2b565b820191906000526020600020905b815481529060010190602001808311610a0e57829003601f168201915b505050505093509650965096509650965096505091939550919395565b33600090815260208181526040808320848452909152812081815590610a71600183018261102d565b610a7f60028301600061102d565b600382016000905560048201600090556005820160009055600682016000610aa7919061102d565b505050565b3360009081526001602081815260408084208785528252808420815160808101909252805482529283018054919392840191610ae7906114f7565b80601f0160208091040260200160405190810160405280929190818152602001828054610b13906114f7565b8015610b605780601f10610b3557610100808354040283529160200191610b60565b820191906000526020600020905b815481529060010190602001808311610b4357829003601f168201915b50505050508152602001600282018054610b79906114f7565b80601f0160208091040260200160405190810160405280929190818152602001828054610ba5906114f7565b8015610bf25780601f10610bc757610100808354040283529160200191610bf2565b820191906000526020600020905b815481529060010190602001808311610bd557829003601f168201915b505050918352505060039190910154602091820152818101858152604080840186905233600090815260018085528282208a83529094522083518155905192935083929091820190610c44908261157f565b5060408201516002820190610c59908261157f565b50606082015181600301559050507fe6897aca0859c5fc24e199f915d0c27564554328736adbb14b20eb5a36ca73ce84848442604051610c9c94939291906112d4565b60405180910390a150505050565b3360009081526003602052604081205460609081908410610d035760405162461bcd60e51b815260206004820152601360248201527243617465676f7279206e6f7420666f756e642160681b6044820152606401610325565b3360009081526001602081815260408084208885529091529091208054918101805491929160028401908290610d38906114f7565b80601f0160208091040260200160405190810160405280929190818152602001828054610d64906114f7565b8015610db15780601f10610d8657610100808354040283529160200191610db1565b820191906000526020600020905b815481529060010190602001808311610d9457829003601f168201915b50505050509150808054610dc4906114f7565b80601f0160208091040260200160405190810160405280929190818152602001828054610df0906114f7565b8015610e3d5780601f10610e1257610100808354040283529160200191610e3d565b820191906000526020600020905b815481529060010190602001808311610e2057829003601f168201915b50505050509050935093509350509193909250565b600060208181529281526040808220909352908152208054600182018054919291610e7c906114f7565b80601f0160208091040260200160405190810160405280929190818152602001828054610ea8906114f7565b8015610ef55780601f10610eca57610100808354040283529160200191610ef5565b820191906000526020600020905b815481529060010190602001808311610ed857829003601f168201915b505050505090806002018054610f0a906114f7565b80601f0160208091040260200160405190810160405280929190818152602001828054610f36906114f7565b8015610f835780601f10610f5857610100808354040283529160200191610f83565b820191906000526020600020905b815481529060010190602001808311610f6657829003601f168201915b505050505090806003015490806004015490806005015490806006018054610faa906114f7565b80601f0160208091040260200160405190810160405280929190818152602001828054610fd6906114f7565b80156110235780601f10610ff857610100808354040283529160200191611023565b820191906000526020600020905b81548152906001019060200180831161100657829003601f168201915b5050505050905087565b508054611039906114f7565b6000825580601f10611049575050565b601f016020900490600052602060002090810190611067919061106a565b50565b5b8082111561107f576000815560010161106b565b5090565b634e487b7160e01b600052604160045260246000fd5b600082601f8301126110aa57600080fd5b813567ffffffffffffffff808211156110c5576110c5611083565b604051601f8301601f19908116603f011681019082821181831017156110ed576110ed611083565b8160405283815286602085880101111561110657600080fd5b836020870160208301376000602085830101528094505050505092915050565b6000806040838503121561113957600080fd5b823567ffffffffffffffff8082111561115157600080fd5b61115d86838701611099565b9350602085013591508082111561117357600080fd5b5061118085828601611099565b9150509250929050565b80356001600160a01b03811681146111a157600080fd5b919050565b6000602082840312156111b857600080fd5b6111c18261118a565b9392505050565b600080600080600060a086880312156111e057600080fd5b853567ffffffffffffffff808211156111f857600080fd5b61120489838a01611099565b9650602088013591508082111561121a57600080fd5b61122689838a01611099565b95506040880135945060608801359350608088013591508082111561124a57600080fd5b5061125788828901611099565b9150509295509295909350565b6000806040838503121561127757600080fd5b6112808361118a565b946020939093013593505050565b6000815180845260005b818110156112b457602081850181015186830182015201611298565b506000602082860101526020601f19601f83011685010191505092915050565b8481526080602082015260006112ed608083018661128e565b82810360408401526112ff818661128e565b91505082606083015295945050505050565b600080600080600060a0868803121561132957600080fd5b85359450602086013567ffffffffffffffff8082111561134857600080fd5b61135489838a01611099565b9550604088013591508082111561136a57600080fd5b61137689838a01611099565b945060608801359350608088013591508082111561124a57600080fd5b6000602082840312156113a557600080fd5b5035919050565b86815260c0602082015260006113c560c083018861128e565b82810360408401526113d7818861128e565b60608401969096525050608081019290925260a0909101529392505050565b60008060006060848603121561140b57600080fd5b83359250602084013567ffffffffffffffff8082111561142a57600080fd5b61143687838801611099565b9350604086013591508082111561144c57600080fd5b5061145986828701611099565b9150509250925092565b83815260606020820152600061147c606083018561128e565b828103604084015261148e818561128e565b9695505050505050565b87815260e0602082015260006114b160e083018961128e565b82810360408401526114c3818961128e565b90508660608401528560808401528460a084015282810360c08401526114e9818561128e565b9a9950505050505050505050565b600181811c9082168061150b57607f821691505b60208210810361152b57634e487b7160e01b600052602260045260246000fd5b50919050565b601f821115610aa757600081815260208120601f850160051c810160208610156115585750805b601f850160051c820191505b8181101561157757828155600101611564565b505050505050565b815167ffffffffffffffff81111561159957611599611083565b6115ad816115a784546114f7565b84611531565b602080601f8311600181146115e257600084156115ca5750858301515b600019600386901b1c1916600185901b178555611577565b600085815260208120601f198616915b82811015611611578886015182559484019460019091019084016115f2565b508582101561162f5787850151600019600388901b60f8161c191681555b5050505050600190811b01905550565b634e487b7160e01b600052601160045260246000fd5b6000600182016116675761166761163f565b5060010190565b818103818111156116815761168161163f565b92915050565b86815260c0602082015260006116a060c083018861128e565b82810360408401526116b2818861128e565b905085606084015284608084015282810360a08401526116d2818561128e565b999850505050505050505056fea2646970667358221220f415bc1363464cab7fce6dbeeb96b47cabfe6f431f90d0fedc0490b547b515a764736f6c63430008120033",
  "immutableReferences": {},
  "source": "// SPDX-License-Identifier: MIT\r\npragma solidity >=0.4.22 <0.9.0;\r\n\r\ncontract ProductsContract {\r\n  \r\n  constructor() {}\r\n\r\n  struct Product {\r\n    uint id;\r\n    string productName;\r\n    string productDescription;\r\n    uint quantity;\r\n    uint createdAt;\r\n    uint categoryId;\r\n    string productOutput;\r\n  }\r\n\r\n  struct Category {\r\n    uint id;\r\n    string categoryName;\r\n    string categoryDescription;\r\n    uint createdAt;\r\n  }\r\n\r\n  event ProductCreated (\r\n    uint id, string productName, string productDescription, uint quantity, uint createdAt, uint productCategory, string productOutput\r\n  );\r\n\r\n  event CategoryCreated(\r\n    uint id, string categoryName, string categoryDescription, uint createdAt\r\n  );\r\n\r\n  event ProductEdited ( \r\n    uint id, string categoryName, string categoryDescription, uint quantity, uint createdAt, string productOutput\r\n  );\r\n\r\n  event CategoryEdited ( \r\n    uint id, string categoryName, string categoryDescription, uint createdAt\r\n  );\r\n\r\n  mapping (address => mapping(uint => Product)) public products;\r\n  mapping (address => mapping(uint => Category)) public categories;\r\n  mapping (address => uint) public productsCounter;\r\n  mapping (address => uint) public categoriesCounter;\r\n\r\n  function addProduct(string memory _productName, string memory _productDescription, uint _quantity, uint _categoryId, string memory _productOutput) public {\r\n    require(_categoryId < categoriesCounter[msg.sender], 'Category not found!');\r\n    \r\n    uint counter = productsCounter[msg.sender];\r\n    products[msg.sender][counter] = Product(counter, _productName, _productDescription, _quantity, block.timestamp, _categoryId, _productOutput);\r\n    emit ProductCreated(counter, _productName, _productDescription, _quantity, block.timestamp, _categoryId, _productOutput);\r\n    productsCounter[msg.sender]++;\r\n  }\r\n\r\n  function addCategory(string memory _name, string memory _description) public {\r\n    uint counter = categoriesCounter[msg.sender];\r\n    categories[msg.sender][counter] = Category(counter, _name, _description,  block.timestamp);\r\n    emit CategoryCreated(counter, _name, _description, block.timestamp);    \r\n    categoriesCounter[msg.sender]++;\r\n  }\r\n\r\n  function editProduct(uint _id, string memory _productName, string memory _productDescription, uint _quantity, string memory _productOutput) public {\r\n    Product memory product = products[msg.sender][_id];\r\n    product.productName = _productName;\r\n    product.productDescription = _productDescription;\r\n    product.quantity -= _quantity;\r\n    products[msg.sender][_id] = product;\r\n    emit ProductEdited(_id, _productName, _productDescription, _quantity, block.timestamp, _productOutput); \r\n  }\r\n\r\n  function editCategory(uint _id, string memory _categoryName, string memory _categoryDescription) public {\r\n    Category memory category = categories[msg.sender][_id];\r\n    category.categoryName = _categoryName;\r\n    category.categoryDescription = _categoryDescription;\r\n    categories[msg.sender][_id] = category;\r\n    emit CategoryEdited(_id, _categoryName, _categoryDescription, block.timestamp); \r\n  }\r\n\r\n  function deleteProduct(uint _id) public {\r\n    delete products[msg.sender][_id];\r\n  }\r\n\r\n  function getProduct(uint _id) public view returns (uint, string memory, string memory, uint, uint, uint) {\r\n    require(_id < productsCounter[msg.sender], 'Product not found!');\r\n    Product storage product = products[msg.sender][_id];\r\n    return (product.id, product.productName, product.productDescription, product.quantity, product.createdAt, product.categoryId);\r\n  }\r\n\r\n  function getCategory(uint _id) public view returns (uint, string memory, string memory) {\r\n    require(_id < categoriesCounter[msg.sender], 'Category not found!');\r\n    Category storage category = categories[msg.sender][_id];\r\n    return (category.id, category.categoryName, category.categoryDescription);\r\n  }\r\n\r\n}\r\n",
  "sourcePath": "C:\\Users\\loren\\Downloads\\Projects\\blockchain\\blockchain-inventory-system\\contracts\\ProductsContract.sol",
  "compiler": {
    "name": "solc",
    "version": "0.8.18+commit.87f61d96.Emscripten.clang"
  },
  "schemaVersion": "3.4.12",
  "updatedAt": "2023-11-21T19:37:52.030Z",
  "networkType": "ethereum",
  "devdoc": {
    "kind": "dev",
    "methods": {},
    "version": 1
  },
  "userdoc": {
    "kind": "user",
    "methods": {},
    "version": 1
  }
}