{
  "contractName": "ProductsContract",
  "abi": [
    {
      "inputs": [],
      "stateMutability": "nonpayable",
      "type": "constructor"
    },
    {
      "anonymous": false,
      "inputs": [
        {
          "indexed": false,
          "internalType": "uint256",
          "name": "id",
          "type": "uint256"
        },
        {
          "indexed": false,
          "internalType": "string",
          "name": "categoryName",
          "type": "string"
        },
        {
          "indexed": false,
          "internalType": "string",
          "name": "categoryDescription",
          "type": "string"
        }
      ],
      "name": "CategoryCreated",
      "type": "event"
    },
    {
      "anonymous": false,
      "inputs": [
        {
          "indexed": false,
          "internalType": "uint256",
          "name": "id",
          "type": "uint256"
        },
        {
          "indexed": false,
          "internalType": "string",
          "name": "productName",
          "type": "string"
        },
        {
          "indexed": false,
          "internalType": "string",
          "name": "productDescription",
          "type": "string"
        },
        {
          "indexed": false,
          "internalType": "uint256",
          "name": "quantity",
          "type": "uint256"
        },
        {
          "indexed": false,
          "internalType": "uint256",
          "name": "createdAt",
          "type": "uint256"
        },
        {
          "indexed": false,
          "internalType": "uint256",
          "name": "productCategory",
          "type": "uint256"
        }
      ],
      "name": "ProductCreated",
      "type": "event"
    },
    {
      "anonymous": false,
      "inputs": [
        {
          "indexed": false,
          "internalType": "uint256",
          "name": "id",
          "type": "uint256"
        },
        {
          "indexed": false,
          "internalType": "string",
          "name": "categoryName",
          "type": "string"
        },
        {
          "indexed": false,
          "internalType": "string",
          "name": "categoryDescription",
          "type": "string"
        },
        {
          "indexed": false,
          "internalType": "uint256",
          "name": "quantity",
          "type": "uint256"
        }
      ],
      "name": "ProductEdited",
      "type": "event"
    },
    {
      "inputs": [
        {
          "internalType": "address",
          "name": "",
          "type": "address"
        },
        {
          "internalType": "uint256",
          "name": "",
          "type": "uint256"
        }
      ],
      "name": "categories",
      "outputs": [
        {
          "internalType": "uint256",
          "name": "id",
          "type": "uint256"
        },
        {
          "internalType": "string",
          "name": "categoryName",
          "type": "string"
        },
        {
          "internalType": "string",
          "name": "categoryDescription",
          "type": "string"
        }
      ],
      "stateMutability": "view",
      "type": "function",
      "constant": true
    },
    {
      "inputs": [
        {
          "internalType": "address",
          "name": "",
          "type": "address"
        }
      ],
      "name": "categoriesCounter",
      "outputs": [
        {
          "internalType": "uint256",
          "name": "",
          "type": "uint256"
        }
      ],
      "stateMutability": "view",
      "type": "function",
      "constant": true
    },
    {
      "inputs": [
        {
          "internalType": "address",
          "name": "",
          "type": "address"
        },
        {
          "internalType": "uint256",
          "name": "",
          "type": "uint256"
        }
      ],
      "name": "products",
      "outputs": [
        {
          "internalType": "uint256",
          "name": "id",
          "type": "uint256"
        },
        {
          "internalType": "string",
          "name": "productName",
          "type": "string"
        },
        {
          "internalType": "string",
          "name": "productDescription",
          "type": "string"
        },
        {
          "internalType": "uint256",
          "name": "quantity",
          "type": "uint256"
        },
        {
          "internalType": "uint256",
          "name": "createdAt",
          "type": "uint256"
        },
        {
          "internalType": "uint256",
          "name": "categoryId",
          "type": "uint256"
        }
      ],
      "stateMutability": "view",
      "type": "function",
      "constant": true
    },
    {
      "inputs": [
        {
          "internalType": "address",
          "name": "",
          "type": "address"
        }
      ],
      "name": "productsCounter",
      "outputs": [
        {
          "internalType": "uint256",
          "name": "",
          "type": "uint256"
        }
      ],
      "stateMutability": "view",
      "type": "function",
      "constant": true
    },
    {
      "inputs": [
        {
          "internalType": "string",
          "name": "_productName",
          "type": "string"
        },
        {
          "internalType": "string",
          "name": "_productDescription",
          "type": "string"
        },
        {
          "internalType": "uint256",
          "name": "_quantity",
          "type": "uint256"
        },
        {
          "internalType": "uint256",
          "name": "_categoryId",
          "type": "uint256"
        }
      ],
      "name": "addProduct",
      "outputs": [],
      "stateMutability": "nonpayable",
      "type": "function"
    },
    {
      "inputs": [
        {
          "internalType": "string",
          "name": "_name",
          "type": "string"
        },
        {
          "internalType": "string",
          "name": "_description",
          "type": "string"
        }
      ],
      "name": "addCategory",
      "outputs": [],
      "stateMutability": "nonpayable",
      "type": "function"
    },
    {
      "inputs": [
        {
          "internalType": "uint256",
          "name": "_id",
          "type": "uint256"
        },
        {
          "internalType": "string",
          "name": "_productName",
          "type": "string"
        },
        {
          "internalType": "string",
          "name": "_productDescription",
          "type": "string"
        },
        {
          "internalType": "uint256",
          "name": "_quantity",
          "type": "uint256"
        }
      ],
      "name": "editProduct",
      "outputs": [],
      "stateMutability": "nonpayable",
      "type": "function"
    },
    {
      "inputs": [
        {
          "internalType": "uint256",
          "name": "_id",
          "type": "uint256"
        }
      ],
      "name": "deleteProduct",
      "outputs": [],
      "stateMutability": "nonpayable",
      "type": "function"
    },
    {
      "inputs": [
        {
          "internalType": "uint256",
          "name": "_id",
          "type": "uint256"
        }
      ],
      "name": "getProduct",
      "outputs": [
        {
          "internalType": "uint256",
          "name": "",
          "type": "uint256"
        },
        {
          "internalType": "string",
          "name": "",
          "type": "string"
        },
        {
          "internalType": "string",
          "name": "",
          "type": "string"
        },
        {
          "internalType": "uint256",
          "name": "",
          "type": "uint256"
        },
        {
          "internalType": "uint256",
          "name": "",
          "type": "uint256"
        },
        {
          "internalType": "uint256",
          "name": "",
          "type": "uint256"
        }
      ],
      "stateMutability": "view",
      "type": "function",
      "constant": true
    },
    {
      "inputs": [
        {
          "internalType": "uint256",
          "name": "_id",
          "type": "uint256"
        }
      ],
      "name": "getCategory",
      "outputs": [
        {
          "internalType": "uint256",
          "name": "",
          "type": "uint256"
        },
        {
          "internalType": "string",
          "name": "",
          "type": "string"
        },
        {
          "internalType": "string",
          "name": "",
          "type": "string"
        }
      ],
      "stateMutability": "view",
      "type": "function",
      "constant": true
    }
  ],
  "bytecode": "0x608060405234801561001057600080fd5b506111fb806100206000396000f3fe608060405234801561001057600080fd5b506004361061009e5760003560e01c806397007753116100665780639700775314610131578063b9db15b414610153578063ed90c7b714610178578063f3052d261461018b578063fc6409491461019e57600080fd5b806301cecd14146100a35780631bf703b2146100b857806336d83f6c146100cb57806348bd68dd146100fe578063898ceb2014610111575b600080fd5b6100b66100b1366004610d64565b6101b1565b005b6100b66100c6366004610dd8565b610311565b6100eb6100d9366004610e58565b60026020526000908152604090205481565b6040519081526020015b60405180910390f35b6100b661010c366004610e7a565b6103e2565b6100eb61011f366004610e58565b60036020526000908152604090205481565b61014461013f366004610eef565b610626565b6040516100f593929190610f5f565b610166610161366004610f94565b610760565b6040516100f596959493929190610fad565b6100b6610186366004610f94565b610925565b610144610199366004610f94565b610976565b6101666101ac366004610eef565b610b1e565b33600090815260036020526040902054811061020a5760405162461bcd60e51b815260206004820152601360248201527243617465676f7279206e6f7420666f756e642160681b60448201526064015b60405180910390fd5b33600081815260026020908152604080832054815160c0810183528181528084018a81528184018a90526060820189905242608083015260a0820188905295855284845282852082865290935292208151815592519192909160018201906102729082611080565b50604082015160028201906102879082611080565b50606082015181600301556080820151816004015560a082015181600501559050507f3b10aae8625b5b275fde49fdec47166cf0b0f2382321bf9bd08e5c15283910238186868642876040516102e296959493929190610fad565b60405180910390a133600090815260026020526040812080549161030583611156565b91905055505050505050565b3360008181526003602090815260408083205481516060810183528181528084018881528184018890529585526001808552838620838752909452919093208151815593519293909290918201906103699082611080565b506040820151600282019061037e9082611080565b509050507f22c31dca291d7f417aeb56deed394f40bc020be39668f3b25e7c0414c21526df8184846040516103b593929190610f5f565b60405180910390a13360009081526003602052604081208054916103d883611156565b9190505550505050565b336000908152602081815260408083208784528252808320815160c0810190925280548252600181018054929391929184019161041e90610ff7565b80601f016020809104026020016040519081016040528092919081815260200182805461044a90610ff7565b80156104975780601f1061046c57610100808354040283529160200191610497565b820191906000526020600020905b81548152906001019060200180831161047a57829003601f168201915b505050505081526020016002820180546104b090610ff7565b80601f01602080910402602001604051908101604052809291908181526020018280546104dc90610ff7565b80156105295780601f106104fe57610100808354040283529160200191610529565b820191906000526020600020905b81548152906001019060200180831161050c57829003601f168201915b50505050508152602001600382015481526020016004820154815260200160058201548152505090508381602001819052508281604001819052508181606001818151610576919061116f565b905250336000908152602081815260408083208884528252909120825181559082015182919060018201906105ab9082611080565b50604082015160028201906105c09082611080565b50606082015181600301556080820151816004015560a082015181600501559050507f5eb295f581201d9e7bd76f4937909ac6d4d72a16772faaaf4d636a76af493e28858585856040516106179493929190611188565b60405180910390a15050505050565b600160208181526000938452604080852090915291835291208054918101805461064f90610ff7565b80601f016020809104026020016040519081016040528092919081815260200182805461067b90610ff7565b80156106c85780601f1061069d576101008083540402835291602001916106c8565b820191906000526020600020905b8154815290600101906020018083116106ab57829003601f168201915b5050505050908060020180546106dd90610ff7565b80601f016020809104026020016040519081016040528092919081815260200182805461070990610ff7565b80156107565780601f1061072b57610100808354040283529160200191610756565b820191906000526020600020905b81548152906001019060200180831161073957829003601f168201915b5050505050905083565b33600090815260026020526040812054606090819083908190819087106107be5760405162461bcd60e51b815260206004820152601260248201527150726f64756374206e6f7420666f756e642160701b6044820152606401610201565b336000908152602081815260408083208a8452909152902080546003820154600483015460058401546001850180549093600287019390929091859061080390610ff7565b80601f016020809104026020016040519081016040528092919081815260200182805461082f90610ff7565b801561087c5780601f106108515761010080835404028352916020019161087c565b820191906000526020600020905b81548152906001019060200180831161085f57829003601f168201915b5050505050945083805461088f90610ff7565b80601f01602080910402602001604051908101604052809291908181526020018280546108bb90610ff7565b80156109085780601f106108dd57610100808354040283529160200191610908565b820191906000526020600020905b8154815290600101906020018083116108eb57829003601f168201915b505050505093509650965096509650965096505091939550919395565b3360009081526020818152604080832084845290915281208181559061094e6001830182610c6b565b61095c600283016000610c6b565b506000600382018190556004820181905560059091015550565b33600090815260036020526040812054606090819084106109cf5760405162461bcd60e51b815260206004820152601360248201527243617465676f7279206e6f7420666f756e642160681b6044820152606401610201565b3360009081526001602081815260408084208885529091529091208054918101805491929160028401908290610a0490610ff7565b80601f0160208091040260200160405190810160405280929190818152602001828054610a3090610ff7565b8015610a7d5780601f10610a5257610100808354040283529160200191610a7d565b820191906000526020600020905b815481529060010190602001808311610a6057829003601f168201915b50505050509150808054610a9090610ff7565b80601f0160208091040260200160405190810160405280929190818152602001828054610abc90610ff7565b8015610b095780601f10610ade57610100808354040283529160200191610b09565b820191906000526020600020905b815481529060010190602001808311610aec57829003601f168201915b50505050509050935093509350509193909250565b600060208181529281526040808220909352908152208054600182018054919291610b4890610ff7565b80601f0160208091040260200160405190810160405280929190818152602001828054610b7490610ff7565b8015610bc15780601f10610b9657610100808354040283529160200191610bc1565b820191906000526020600020905b815481529060010190602001808311610ba457829003601f168201915b505050505090806002018054610bd690610ff7565b80601f0160208091040260200160405190810160405280929190818152602001828054610c0290610ff7565b8015610c4f5780601f10610c2457610100808354040283529160200191610c4f565b820191906000526020600020905b815481529060010190602001808311610c3257829003601f168201915b5050505050908060030154908060040154908060050154905086565b508054610c7790610ff7565b6000825580601f10610c87575050565b601f016020900490600052602060002090810190610ca59190610ca8565b50565b5b80821115610cbd5760008155600101610ca9565b5090565b634e487b7160e01b600052604160045260246000fd5b600082601f830112610ce857600080fd5b813567ffffffffffffffff80821115610d0357610d03610cc1565b604051601f8301601f19908116603f01168101908282118183101715610d2b57610d2b610cc1565b81604052838152866020858801011115610d4457600080fd5b836020870160208301376000602085830101528094505050505092915050565b60008060008060808587031215610d7a57600080fd5b843567ffffffffffffffff80821115610d9257600080fd5b610d9e88838901610cd7565b95506020870135915080821115610db457600080fd5b50610dc187828801610cd7565b949794965050505060408301359260600135919050565b60008060408385031215610deb57600080fd5b823567ffffffffffffffff80821115610e0357600080fd5b610e0f86838701610cd7565b93506020850135915080821115610e2557600080fd5b50610e3285828601610cd7565b9150509250929050565b80356001600160a01b0381168114610e5357600080fd5b919050565b600060208284031215610e6a57600080fd5b610e7382610e3c565b9392505050565b60008060008060808587031215610e9057600080fd5b84359350602085013567ffffffffffffffff80821115610eaf57600080fd5b610ebb88838901610cd7565b94506040870135915080821115610ed157600080fd5b50610ede87828801610cd7565b949793965093946060013593505050565b60008060408385031215610f0257600080fd5b610f0b83610e3c565b946020939093013593505050565b6000815180845260005b81811015610f3f57602081850181015186830182015201610f23565b506000602082860101526020601f19601f83011685010191505092915050565b838152606060208201526000610f786060830185610f19565b8281036040840152610f8a8185610f19565b9695505050505050565b600060208284031215610fa657600080fd5b5035919050565b86815260c060208201526000610fc660c0830188610f19565b8281036040840152610fd88188610f19565b60608401969096525050608081019290925260a0909101529392505050565b600181811c9082168061100b57607f821691505b60208210810361102b57634e487b7160e01b600052602260045260246000fd5b50919050565b601f82111561107b57600081815260208120601f850160051c810160208610156110585750805b601f850160051c820191505b8181101561107757828155600101611064565b5050505b505050565b815167ffffffffffffffff81111561109a5761109a610cc1565b6110ae816110a88454610ff7565b84611031565b602080601f8311600181146110e357600084156110cb5750858301515b600019600386901b1c1916600185901b178555611077565b600085815260208120601f198616915b82811015611112578886015182559484019460019091019084016110f3565b50858210156111305787850151600019600388901b60f8161c191681555b5050505050600190811b01905550565b634e487b7160e01b600052601160045260246000fd5b60006001820161116857611168611140565b5060010190565b8181038181111561118257611182611140565b92915050565b8481526080602082015260006111a16080830186610f19565b82810360408401526111b38186610f19565b9150508260608301529594505050505056fea2646970667358221220067178f2742ba3d576473d9ece590ec255527dc4293e18ae650d0d74a813f5b864736f6c63430008120033",
  "immutableReferences": {},
  "source": "// SPDX-License-Identifier: MIT\r\npragma solidity >=0.4.22 <0.9.0;\r\n\r\ncontract ProductsContract {\r\n  \r\n  constructor() {}\r\n\r\n  struct Product {\r\n    uint id;\r\n    string productName;\r\n    string productDescription;\r\n    uint quantity;\r\n    uint createdAt;\r\n    uint categoryId;\r\n  }\r\n\r\n  struct Category {\r\n    uint id;\r\n    string categoryName;\r\n    string categoryDescription;\r\n  }\r\n\r\n  event ProductCreated (\r\n    uint id, string productName, string productDescription, uint quantity, uint createdAt, uint productCategory\r\n  );\r\n\r\n  event CategoryCreated(\r\n    uint id, string categoryName, string categoryDescription\r\n  );\r\n\r\n  event ProductEdited ( \r\n    uint id, string categoryName, string categoryDescription, uint quantity\r\n  );\r\n\r\n  mapping (address => mapping(uint => Product)) public products;\r\n  mapping (address => mapping(uint => Category)) public categories;\r\n  mapping (address => uint) public productsCounter;\r\n  mapping (address => uint) public categoriesCounter;\r\n\r\n  function addProduct(string memory _productName, string memory _productDescription, uint _quantity, uint _categoryId) public {\r\n    require(_categoryId < categoriesCounter[msg.sender], 'Category not found!');\r\n    \r\n    uint counter = productsCounter[msg.sender];\r\n    products[msg.sender][counter] = Product(counter, _productName, _productDescription, _quantity, block.timestamp, _categoryId);\r\n    emit ProductCreated(counter, _productName, _productDescription, _quantity, block.timestamp, _categoryId);\r\n    productsCounter[msg.sender]++;\r\n  }\r\n\r\n  function addCategory(string memory _name, string memory _description) public {\r\n    uint counter = categoriesCounter[msg.sender];\r\n    categories[msg.sender][counter] = Category(counter, _name, _description);\r\n    emit CategoryCreated(counter, _name, _description);    \r\n    categoriesCounter[msg.sender]++;\r\n  }\r\n\r\n  function editProduct(uint _id, string memory _productName, string memory _productDescription, uint _quantity) public {\r\n    Product memory product = products[msg.sender][_id];\r\n    product.productName = _productName;\r\n    product.productDescription = _productDescription;\r\n    product.quantity -= _quantity;\r\n    products[msg.sender][_id] = product;\r\n    emit ProductEdited(_id, _productName, _productDescription, _quantity); \r\n  }\r\n\r\n  function deleteProduct(uint _id) public {\r\n    delete products[msg.sender][_id];\r\n  }\r\n\r\n  function getProduct(uint _id) public view returns (uint, string memory, string memory, uint, uint, uint) {\r\n    require(_id < productsCounter[msg.sender], 'Product not found!');\r\n    Product storage product = products[msg.sender][_id];\r\n    return (product.id, product.productName, product.productDescription, product.quantity, product.createdAt, product.categoryId);\r\n  }\r\n\r\n  function getCategory(uint _id) public view returns (uint, string memory, string memory) {\r\n    require(_id < categoriesCounter[msg.sender], 'Category not found!');\r\n    Category storage category = categories[msg.sender][_id];\r\n    return (category.id, category.categoryName, category.categoryDescription);\r\n  }\r\n\r\n}\r\n",
  "sourcePath": "C:\\Users\\loren\\Downloads\\Projects\\blockchain\\blockchain-inventory-system\\contracts\\ProductsContract.sol",
  "compiler": {
    "name": "solc",
    "version": "0.8.18+commit.87f61d96.Emscripten.clang"
  },
  "schemaVersion": "3.4.12",
  "updatedAt": "2023-11-16T03:26:46.095Z",
  "networkType": "ethereum",
  "devdoc": {
    "kind": "dev",
    "methods": {},
    "version": 1
  },
  "userdoc": {
    "kind": "user",
    "methods": {},
    "version": 1
  }
}