{
  "contractName": "ProductsContract",
  "abi": [
    {
      "inputs": [],
      "stateMutability": "nonpayable",
      "type": "constructor"
    },
    {
      "anonymous": false,
      "inputs": [
        {
          "indexed": false,
          "internalType": "uint256",
          "name": "id",
          "type": "uint256"
        },
        {
          "indexed": false,
          "internalType": "string",
          "name": "categoryName",
          "type": "string"
        },
        {
          "indexed": false,
          "internalType": "string",
          "name": "categoryDescription",
          "type": "string"
        }
      ],
      "name": "CategoryCreated",
      "type": "event"
    },
    {
      "anonymous": false,
      "inputs": [
        {
          "indexed": false,
          "internalType": "uint256",
          "name": "id",
          "type": "uint256"
        },
        {
          "indexed": false,
          "internalType": "string",
          "name": "categoryName",
          "type": "string"
        },
        {
          "indexed": false,
          "internalType": "string",
          "name": "categoryDescription",
          "type": "string"
        }
      ],
      "name": "CategoryEdited",
      "type": "event"
    },
    {
      "anonymous": false,
      "inputs": [
        {
          "indexed": false,
          "internalType": "uint256",
          "name": "id",
          "type": "uint256"
        },
        {
          "indexed": false,
          "internalType": "string",
          "name": "productName",
          "type": "string"
        },
        {
          "indexed": false,
          "internalType": "string",
          "name": "productDescription",
          "type": "string"
        },
        {
          "indexed": false,
          "internalType": "uint256",
          "name": "quantity",
          "type": "uint256"
        },
        {
          "indexed": false,
          "internalType": "uint256",
          "name": "createdAt",
          "type": "uint256"
        },
        {
          "indexed": false,
          "internalType": "uint256",
          "name": "productCategory",
          "type": "uint256"
        }
      ],
      "name": "ProductCreated",
      "type": "event"
    },
    {
      "anonymous": false,
      "inputs": [
        {
          "indexed": false,
          "internalType": "uint256",
          "name": "id",
          "type": "uint256"
        },
        {
          "indexed": false,
          "internalType": "string",
          "name": "categoryName",
          "type": "string"
        },
        {
          "indexed": false,
          "internalType": "string",
          "name": "categoryDescription",
          "type": "string"
        },
        {
          "indexed": false,
          "internalType": "uint256",
          "name": "quantity",
          "type": "uint256"
        }
      ],
      "name": "ProductEdited",
      "type": "event"
    },
    {
      "inputs": [
        {
          "internalType": "address",
          "name": "",
          "type": "address"
        },
        {
          "internalType": "uint256",
          "name": "",
          "type": "uint256"
        }
      ],
      "name": "categories",
      "outputs": [
        {
          "internalType": "uint256",
          "name": "id",
          "type": "uint256"
        },
        {
          "internalType": "string",
          "name": "categoryName",
          "type": "string"
        },
        {
          "internalType": "string",
          "name": "categoryDescription",
          "type": "string"
        }
      ],
      "stateMutability": "view",
      "type": "function",
      "constant": true
    },
    {
      "inputs": [
        {
          "internalType": "address",
          "name": "",
          "type": "address"
        }
      ],
      "name": "categoriesCounter",
      "outputs": [
        {
          "internalType": "uint256",
          "name": "",
          "type": "uint256"
        }
      ],
      "stateMutability": "view",
      "type": "function",
      "constant": true
    },
    {
      "inputs": [
        {
          "internalType": "address",
          "name": "",
          "type": "address"
        },
        {
          "internalType": "uint256",
          "name": "",
          "type": "uint256"
        }
      ],
      "name": "products",
      "outputs": [
        {
          "internalType": "uint256",
          "name": "id",
          "type": "uint256"
        },
        {
          "internalType": "string",
          "name": "productName",
          "type": "string"
        },
        {
          "internalType": "string",
          "name": "productDescription",
          "type": "string"
        },
        {
          "internalType": "uint256",
          "name": "quantity",
          "type": "uint256"
        },
        {
          "internalType": "uint256",
          "name": "createdAt",
          "type": "uint256"
        },
        {
          "internalType": "uint256",
          "name": "categoryId",
          "type": "uint256"
        }
      ],
      "stateMutability": "view",
      "type": "function",
      "constant": true
    },
    {
      "inputs": [
        {
          "internalType": "address",
          "name": "",
          "type": "address"
        }
      ],
      "name": "productsCounter",
      "outputs": [
        {
          "internalType": "uint256",
          "name": "",
          "type": "uint256"
        }
      ],
      "stateMutability": "view",
      "type": "function",
      "constant": true
    },
    {
      "inputs": [
        {
          "internalType": "string",
          "name": "_productName",
          "type": "string"
        },
        {
          "internalType": "string",
          "name": "_productDescription",
          "type": "string"
        },
        {
          "internalType": "uint256",
          "name": "_quantity",
          "type": "uint256"
        },
        {
          "internalType": "uint256",
          "name": "_categoryId",
          "type": "uint256"
        }
      ],
      "name": "addProduct",
      "outputs": [],
      "stateMutability": "nonpayable",
      "type": "function"
    },
    {
      "inputs": [
        {
          "internalType": "string",
          "name": "_name",
          "type": "string"
        },
        {
          "internalType": "string",
          "name": "_description",
          "type": "string"
        }
      ],
      "name": "addCategory",
      "outputs": [],
      "stateMutability": "nonpayable",
      "type": "function"
    },
    {
      "inputs": [
        {
          "internalType": "uint256",
          "name": "_id",
          "type": "uint256"
        },
        {
          "internalType": "string",
          "name": "_productName",
          "type": "string"
        },
        {
          "internalType": "string",
          "name": "_productDescription",
          "type": "string"
        },
        {
          "internalType": "uint256",
          "name": "_quantity",
          "type": "uint256"
        }
      ],
      "name": "editProduct",
      "outputs": [],
      "stateMutability": "nonpayable",
      "type": "function"
    },
    {
      "inputs": [
        {
          "internalType": "uint256",
          "name": "_id",
          "type": "uint256"
        },
        {
          "internalType": "string",
          "name": "_categoryName",
          "type": "string"
        },
        {
          "internalType": "string",
          "name": "_categoryDescription",
          "type": "string"
        }
      ],
      "name": "editCategory",
      "outputs": [],
      "stateMutability": "nonpayable",
      "type": "function"
    },
    {
      "inputs": [
        {
          "internalType": "uint256",
          "name": "_id",
          "type": "uint256"
        }
      ],
      "name": "deleteProduct",
      "outputs": [],
      "stateMutability": "nonpayable",
      "type": "function"
    },
    {
      "inputs": [
        {
          "internalType": "uint256",
          "name": "_id",
          "type": "uint256"
        }
      ],
      "name": "getProduct",
      "outputs": [
        {
          "internalType": "uint256",
          "name": "",
          "type": "uint256"
        },
        {
          "internalType": "string",
          "name": "",
          "type": "string"
        },
        {
          "internalType": "string",
          "name": "",
          "type": "string"
        },
        {
          "internalType": "uint256",
          "name": "",
          "type": "uint256"
        },
        {
          "internalType": "uint256",
          "name": "",
          "type": "uint256"
        },
        {
          "internalType": "uint256",
          "name": "",
          "type": "uint256"
        }
      ],
      "stateMutability": "view",
      "type": "function",
      "constant": true
    },
    {
      "inputs": [
        {
          "internalType": "uint256",
          "name": "_id",
          "type": "uint256"
        }
      ],
      "name": "getCategory",
      "outputs": [
        {
          "internalType": "uint256",
          "name": "",
          "type": "uint256"
        },
        {
          "internalType": "string",
          "name": "",
          "type": "string"
        },
        {
          "internalType": "string",
          "name": "",
          "type": "string"
        }
      ],
      "stateMutability": "view",
      "type": "function",
      "constant": true
    }
  ],
  "bytecode": "0x608060405234801561001057600080fd5b5061146f806100206000396000f3fe608060405234801561001057600080fd5b50600436106100a95760003560e01c80639700775311610071578063970077531461013c578063b9db15b41461015e578063ed90c7b714610183578063edd1de4d14610196578063f3052d26146101a9578063fc640949146101bc57600080fd5b806301cecd14146100ae5780631bf703b2146100c357806336d83f6c146100d657806348bd68dd14610109578063898ceb201461011c575b600080fd5b6100c16100bc366004610f6b565b6101cf565b005b6100c16100d1366004610fdf565b61032f565b6100f66100e436600461105f565b60026020526000908152604090205481565b6040519081526020015b60405180910390f35b6100c1610117366004611081565b610400565b6100f661012a36600461105f565b60036020526000908152604090205481565b61014f61014a3660046110f6565b610644565b60405161010093929190611166565b61017161016c36600461119b565b61077e565b604051610100969594939291906111b4565b6100c161019136600461119b565b610943565b6100c16101a43660046111fe565b610994565b61014f6101b736600461119b565b610b7d565b6101716101ca3660046110f6565b610d25565b3360009081526003602052604090205481106102285760405162461bcd60e51b815260206004820152601360248201527243617465676f7279206e6f7420666f756e642160681b60448201526064015b60405180910390fd5b33600081815260026020908152604080832054815160c0810183528181528084018a81528184018a90526060820189905242608083015260a08201889052958552848452828520828652909352922081518155925191929091600182019061029090826112f4565b50604082015160028201906102a590826112f4565b50606082015181600301556080820151816004015560a082015181600501559050507f3b10aae8625b5b275fde49fdec47166cf0b0f2382321bf9bd08e5c1528391023818686864287604051610300969594939291906111b4565b60405180910390a1336000908152600260205260408120805491610323836113ca565b91905055505050505050565b33600081815260036020908152604080832054815160608101835281815280840188815281840188905295855260018085528386208387529094529190932081518155935192939092909182019061038790826112f4565b506040820151600282019061039c90826112f4565b509050507f22c31dca291d7f417aeb56deed394f40bc020be39668f3b25e7c0414c21526df8184846040516103d393929190611166565b60405180910390a13360009081526003602052604081208054916103f6836113ca565b9190505550505050565b336000908152602081815260408083208784528252808320815160c0810190925280548252600181018054929391929184019161043c9061126b565b80601f01602080910402602001604051908101604052809291908181526020018280546104689061126b565b80156104b55780601f1061048a576101008083540402835291602001916104b5565b820191906000526020600020905b81548152906001019060200180831161049857829003601f168201915b505050505081526020016002820180546104ce9061126b565b80601f01602080910402602001604051908101604052809291908181526020018280546104fa9061126b565b80156105475780601f1061051c57610100808354040283529160200191610547565b820191906000526020600020905b81548152906001019060200180831161052a57829003601f168201915b5050505050815260200160038201548152602001600482015481526020016005820154815250509050838160200181905250828160400181905250818160600181815161059491906113e3565b905250336000908152602081815260408083208884528252909120825181559082015182919060018201906105c990826112f4565b50604082015160028201906105de90826112f4565b50606082015181600301556080820151816004015560a082015181600501559050507f5eb295f581201d9e7bd76f4937909ac6d4d72a16772faaaf4d636a76af493e288585858560405161063594939291906113fc565b60405180910390a15050505050565b600160208181526000938452604080852090915291835291208054918101805461066d9061126b565b80601f01602080910402602001604051908101604052809291908181526020018280546106999061126b565b80156106e65780601f106106bb576101008083540402835291602001916106e6565b820191906000526020600020905b8154815290600101906020018083116106c957829003601f168201915b5050505050908060020180546106fb9061126b565b80601f01602080910402602001604051908101604052809291908181526020018280546107279061126b565b80156107745780601f1061074957610100808354040283529160200191610774565b820191906000526020600020905b81548152906001019060200180831161075757829003601f168201915b5050505050905083565b33600090815260026020526040812054606090819083908190819087106107dc5760405162461bcd60e51b815260206004820152601260248201527150726f64756374206e6f7420666f756e642160701b604482015260640161021f565b336000908152602081815260408083208a845290915290208054600382015460048301546005840154600185018054909360028701939092909185906108219061126b565b80601f016020809104026020016040519081016040528092919081815260200182805461084d9061126b565b801561089a5780601f1061086f5761010080835404028352916020019161089a565b820191906000526020600020905b81548152906001019060200180831161087d57829003601f168201915b505050505094508380546108ad9061126b565b80601f01602080910402602001604051908101604052809291908181526020018280546108d99061126b565b80156109265780601f106108fb57610100808354040283529160200191610926565b820191906000526020600020905b81548152906001019060200180831161090957829003601f168201915b505050505093509650965096509650965096505091939550919395565b3360009081526020818152604080832084845290915281208181559061096c6001830182610e72565b61097a600283016000610e72565b506000600382018190556004820181905560059091015550565b33600090815260016020818152604080842087855282528084208151606081019092528054825292830180549193928401916109cf9061126b565b80601f01602080910402602001604051908101604052809291908181526020018280546109fb9061126b565b8015610a485780601f10610a1d57610100808354040283529160200191610a48565b820191906000526020600020905b815481529060010190602001808311610a2b57829003601f168201915b50505050508152602001600282018054610a619061126b565b80601f0160208091040260200160405190810160405280929190818152602001828054610a8d9061126b565b8015610ada5780601f10610aaf57610100808354040283529160200191610ada565b820191906000526020600020905b815481529060010190602001808311610abd57829003601f168201915b505050919092525050506020808201858152604080840186905233600090815260018085528282208a83529094522083518155905192935083929091820190610b2390826112f4565b5060408201516002820190610b3890826112f4565b509050507f596fd93fde6c29280e759dd819d45ea4b8feff1b071b4056657c05ad6e0b061d848484604051610b6f93929190611166565b60405180910390a150505050565b3360009081526003602052604081205460609081908410610bd65760405162461bcd60e51b815260206004820152601360248201527243617465676f7279206e6f7420666f756e642160681b604482015260640161021f565b3360009081526001602081815260408084208885529091529091208054918101805491929160028401908290610c0b9061126b565b80601f0160208091040260200160405190810160405280929190818152602001828054610c379061126b565b8015610c845780601f10610c5957610100808354040283529160200191610c84565b820191906000526020600020905b815481529060010190602001808311610c6757829003601f168201915b50505050509150808054610c979061126b565b80601f0160208091040260200160405190810160405280929190818152602001828054610cc39061126b565b8015610d105780601f10610ce557610100808354040283529160200191610d10565b820191906000526020600020905b815481529060010190602001808311610cf357829003601f168201915b50505050509050935093509350509193909250565b600060208181529281526040808220909352908152208054600182018054919291610d4f9061126b565b80601f0160208091040260200160405190810160405280929190818152602001828054610d7b9061126b565b8015610dc85780601f10610d9d57610100808354040283529160200191610dc8565b820191906000526020600020905b815481529060010190602001808311610dab57829003601f168201915b505050505090806002018054610ddd9061126b565b80601f0160208091040260200160405190810160405280929190818152602001828054610e099061126b565b8015610e565780601f10610e2b57610100808354040283529160200191610e56565b820191906000526020600020905b815481529060010190602001808311610e3957829003601f168201915b5050505050908060030154908060040154908060050154905086565b508054610e7e9061126b565b6000825580601f10610e8e575050565b601f016020900490600052602060002090810190610eac9190610eaf565b50565b5b80821115610ec45760008155600101610eb0565b5090565b634e487b7160e01b600052604160045260246000fd5b600082601f830112610eef57600080fd5b813567ffffffffffffffff80821115610f0a57610f0a610ec8565b604051601f8301601f19908116603f01168101908282118183101715610f3257610f32610ec8565b81604052838152866020858801011115610f4b57600080fd5b836020870160208301376000602085830101528094505050505092915050565b60008060008060808587031215610f8157600080fd5b843567ffffffffffffffff80821115610f9957600080fd5b610fa588838901610ede565b95506020870135915080821115610fbb57600080fd5b50610fc887828801610ede565b949794965050505060408301359260600135919050565b60008060408385031215610ff257600080fd5b823567ffffffffffffffff8082111561100a57600080fd5b61101686838701610ede565b9350602085013591508082111561102c57600080fd5b5061103985828601610ede565b9150509250929050565b80356001600160a01b038116811461105a57600080fd5b919050565b60006020828403121561107157600080fd5b61107a82611043565b9392505050565b6000806000806080858703121561109757600080fd5b84359350602085013567ffffffffffffffff808211156110b657600080fd5b6110c288838901610ede565b945060408701359150808211156110d857600080fd5b506110e587828801610ede565b949793965093946060013593505050565b6000806040838503121561110957600080fd5b61111283611043565b946020939093013593505050565b6000815180845260005b818110156111465760208185018101518683018201520161112a565b506000602082860101526020601f19601f83011685010191505092915050565b83815260606020820152600061117f6060830185611120565b82810360408401526111918185611120565b9695505050505050565b6000602082840312156111ad57600080fd5b5035919050565b86815260c0602082015260006111cd60c0830188611120565b82810360408401526111df8188611120565b60608401969096525050608081019290925260a0909101529392505050565b60008060006060848603121561121357600080fd5b83359250602084013567ffffffffffffffff8082111561123257600080fd5b61123e87838801610ede565b9350604086013591508082111561125457600080fd5b5061126186828701610ede565b9150509250925092565b600181811c9082168061127f57607f821691505b60208210810361129f57634e487b7160e01b600052602260045260246000fd5b50919050565b601f8211156112ef57600081815260208120601f850160051c810160208610156112cc5750805b601f850160051c820191505b818110156112eb578281556001016112d8565b5050505b505050565b815167ffffffffffffffff81111561130e5761130e610ec8565b6113228161131c845461126b565b846112a5565b602080601f831160018114611357576000841561133f5750858301515b600019600386901b1c1916600185901b1785556112eb565b600085815260208120601f198616915b8281101561138657888601518255948401946001909101908401611367565b50858210156113a45787850151600019600388901b60f8161c191681555b5050505050600190811b01905550565b634e487b7160e01b600052601160045260246000fd5b6000600182016113dc576113dc6113b4565b5060010190565b818103818111156113f6576113f66113b4565b92915050565b8481526080602082015260006114156080830186611120565b82810360408401526114278186611120565b9150508260608301529594505050505056fea264697066735822122027036b3eaa4d7f82748817247813c744f4225ae61b2da7f100f6f42298c1e1ca64736f6c63430008120033",
  "immutableReferences": {},
  "source": "// SPDX-License-Identifier: MIT\r\npragma solidity >=0.4.22 <0.9.0;\r\n\r\ncontract ProductsContract {\r\n  \r\n  constructor() {}\r\n\r\n  struct Product {\r\n    uint id;\r\n    string productName;\r\n    string productDescription;\r\n    uint quantity;\r\n    uint createdAt;\r\n    uint categoryId;\r\n  }\r\n\r\n  struct Category {\r\n    uint id;\r\n    string categoryName;\r\n    string categoryDescription;\r\n  }\r\n\r\n  event ProductCreated (\r\n    uint id, string productName, string productDescription, uint quantity, uint createdAt, uint productCategory\r\n  );\r\n\r\n  event CategoryCreated(\r\n    uint id, string categoryName, string categoryDescription\r\n  );\r\n\r\n  event ProductEdited ( \r\n    uint id, string categoryName, string categoryDescription, uint quantity\r\n  );\r\n\r\n  event CategoryEdited ( \r\n    uint id, string categoryName, string categoryDescription\r\n  );\r\n\r\n  mapping (address => mapping(uint => Product)) public products;\r\n  mapping (address => mapping(uint => Category)) public categories;\r\n  mapping (address => uint) public productsCounter;\r\n  mapping (address => uint) public categoriesCounter;\r\n\r\n  function addProduct(string memory _productName, string memory _productDescription, uint _quantity, uint _categoryId) public {\r\n    require(_categoryId < categoriesCounter[msg.sender], 'Category not found!');\r\n    \r\n    uint counter = productsCounter[msg.sender];\r\n    products[msg.sender][counter] = Product(counter, _productName, _productDescription, _quantity, block.timestamp, _categoryId);\r\n    emit ProductCreated(counter, _productName, _productDescription, _quantity, block.timestamp, _categoryId);\r\n    productsCounter[msg.sender]++;\r\n  }\r\n\r\n  function addCategory(string memory _name, string memory _description) public {\r\n    uint counter = categoriesCounter[msg.sender];\r\n    categories[msg.sender][counter] = Category(counter, _name, _description);\r\n    emit CategoryCreated(counter, _name, _description);    \r\n    categoriesCounter[msg.sender]++;\r\n  }\r\n\r\n  function editProduct(uint _id, string memory _productName, string memory _productDescription, uint _quantity) public {\r\n    Product memory product = products[msg.sender][_id];\r\n    product.productName = _productName;\r\n    product.productDescription = _productDescription;\r\n    product.quantity -= _quantity;\r\n    products[msg.sender][_id] = product;\r\n    emit ProductEdited(_id, _productName, _productDescription, _quantity); \r\n  }\r\n\r\n  function editCategory(uint _id, string memory _categoryName, string memory _categoryDescription) public {\r\n    Category memory category = categories[msg.sender][_id];\r\n    category.categoryName = _categoryName;\r\n    category.categoryDescription = _categoryDescription;\r\n    categories[msg.sender][_id] = category;\r\n    emit CategoryEdited(_id, _categoryName, _categoryDescription); \r\n  }\r\n\r\n  function deleteProduct(uint _id) public {\r\n    delete products[msg.sender][_id];\r\n  }\r\n\r\n  function getProduct(uint _id) public view returns (uint, string memory, string memory, uint, uint, uint) {\r\n    require(_id < productsCounter[msg.sender], 'Product not found!');\r\n    Product storage product = products[msg.sender][_id];\r\n    return (product.id, product.productName, product.productDescription, product.quantity, product.createdAt, product.categoryId);\r\n  }\r\n\r\n  function getCategory(uint _id) public view returns (uint, string memory, string memory) {\r\n    require(_id < categoriesCounter[msg.sender], 'Category not found!');\r\n    Category storage category = categories[msg.sender][_id];\r\n    return (category.id, category.categoryName, category.categoryDescription);\r\n  }\r\n\r\n}\r\n",
  "sourcePath": "C:\\Users\\loren\\Downloads\\Projects\\blockchain\\blockchain-inventory-system\\contracts\\ProductsContract.sol",
  "compiler": {
    "name": "solc",
    "version": "0.8.18+commit.87f61d96.Emscripten.clang"
  },
  "schemaVersion": "3.4.12",
  "updatedAt": "2023-11-16T23:24:37.033Z",
  "networkType": "ethereum",
  "devdoc": {
    "kind": "dev",
    "methods": {},
    "version": 1
  },
  "userdoc": {
    "kind": "user",
    "methods": {},
    "version": 1
  }
}