{
  "contractName": "TestContract",
  "abi": [
    {
      "inputs": [],
      "stateMutability": "nonpayable",
      "type": "constructor"
    },
    {
      "anonymous": false,
      "inputs": [
        {
          "indexed": false,
          "internalType": "uint256",
          "name": "id",
          "type": "uint256"
        },
        {
          "indexed": false,
          "internalType": "string",
          "name": "name",
          "type": "string"
        },
        {
          "indexed": false,
          "internalType": "uint256",
          "name": "quantity",
          "type": "uint256"
        },
        {
          "indexed": false,
          "internalType": "bool",
          "name": "avalible",
          "type": "bool"
        },
        {
          "indexed": false,
          "internalType": "uint256",
          "name": "createdAt",
          "type": "uint256"
        }
      ],
      "name": "ProductAdded",
      "type": "event"
    },
    {
      "anonymous": false,
      "inputs": [
        {
          "indexed": false,
          "internalType": "uint256",
          "name": "id",
          "type": "uint256"
        },
        {
          "indexed": false,
          "internalType": "string",
          "name": "name",
          "type": "string"
        },
        {
          "indexed": false,
          "internalType": "uint256",
          "name": "quantity",
          "type": "uint256"
        }
      ],
      "name": "ProductDecreased",
      "type": "event"
    },
    {
      "inputs": [
        {
          "internalType": "address",
          "name": "",
          "type": "address"
        },
        {
          "internalType": "uint256",
          "name": "",
          "type": "uint256"
        }
      ],
      "name": "products",
      "outputs": [
        {
          "internalType": "uint256",
          "name": "id",
          "type": "uint256"
        },
        {
          "internalType": "string",
          "name": "name",
          "type": "string"
        },
        {
          "internalType": "uint256",
          "name": "quantity",
          "type": "uint256"
        },
        {
          "internalType": "bool",
          "name": "avalible",
          "type": "bool"
        },
        {
          "internalType": "uint256",
          "name": "createdAt",
          "type": "uint256"
        }
      ],
      "stateMutability": "view",
      "type": "function"
    },
    {
      "inputs": [
        {
          "internalType": "address",
          "name": "",
          "type": "address"
        }
      ],
      "name": "productsCounter",
      "outputs": [
        {
          "internalType": "uint256",
          "name": "",
          "type": "uint256"
        }
      ],
      "stateMutability": "view",
      "type": "function"
    },
    {
      "inputs": [
        {
          "internalType": "string",
          "name": "_name",
          "type": "string"
        },
        {
          "internalType": "uint256",
          "name": "_quantity",
          "type": "uint256"
        }
      ],
      "name": "addNewProduct",
      "outputs": [],
      "stateMutability": "nonpayable",
      "type": "function"
    },
    {
      "inputs": [
        {
          "internalType": "uint256",
          "name": "index",
          "type": "uint256"
        }
      ],
      "name": "getProduct",
      "outputs": [
        {
          "internalType": "uint256",
          "name": "",
          "type": "uint256"
        },
        {
          "internalType": "string",
          "name": "",
          "type": "string"
        },
        {
          "internalType": "uint256",
          "name": "",
          "type": "uint256"
        },
        {
          "internalType": "bool",
          "name": "",
          "type": "bool"
        },
        {
          "internalType": "uint256",
          "name": "",
          "type": "uint256"
        }
      ],
      "stateMutability": "view",
      "type": "function"
    }
  ],
  "bytecode": "0x608060405234801561001057600080fd5b5060408051808201909152600981526870726f64756374203160b81b602082015261003c90604e610041565b610328565b33600081815260016020818152604080842054815160a0810183528181528084018981528184018990526060820186905242608083015296865285845282862082875290935293208151815593519293909290918201906100a290826101d5565b506040828101516002830155606083015160038301805460ff1916911515919091179055608090920151600490910155517ff8029b4f1f31e6ba61db33a43135846d45dec590ea6e47ce66f0ca4c00226f2c90610109908390869086906001904290610294565b60405180910390a133600090815260016020526040812080549161012c83610301565b9190505550505050565b634e487b7160e01b600052604160045260246000fd5b600181811c9082168061016057607f821691505b60208210810361018057634e487b7160e01b600052602260045260246000fd5b50919050565b601f8211156101d057600081815260208120601f850160051c810160208610156101ad5750805b601f850160051c820191505b818110156101cc578281556001016101b9565b5050505b505050565b81516001600160401b038111156101ee576101ee610136565b610202816101fc845461014c565b84610186565b602080601f831160018114610237576000841561021f5750858301515b600019600386901b1c1916600185901b1785556101cc565b600085815260208120601f198616915b8281101561026657888601518255948401946001909101908401610247565b50858210156102845787850151600019600388901b60f8161c191681555b5050505050600190811b01905550565b8581526000602060a08184015286518060a085015260005b818110156102c85788810183015185820160c0015282016102ac565b50600060c0828601015260c0601f19601f8301168501019250505084604083015283151560608301528260808301529695505050505050565b60006001820161032157634e487b7160e01b600052601160045260246000fd5b5060010190565b610720806103376000396000f3fe608060405234801561001057600080fd5b506004361061004c5760003560e01c806336d83f6c14610051578063b118ce7514610084578063b9db15b414610099578063fc640949146100bd575b600080fd5b61007161005f3660046103dd565b60016020526000908152604090205481565b6040519081526020015b60405180910390f35b610097610092366004610415565b6100d0565b005b6100ac6100a73660046104ca565b6101c5565b60405161007b9594939291906104e3565b6100ac6100cb366004610550565b6102fc565b33600081815260016020818152604080842054815160a0810183528181528084018981528184018990526060820186905242608083015296865285845282862082875290935293208151815593519293909290918201906101319082610603565b506040828101516002830155606083015160038301805460ff1916911515919091179055608090920151600490910155517ff8029b4f1f31e6ba61db33a43135846d45dec590ea6e47ce66f0ca4c00226f2c906101989083908690869060019042906104e3565b60405180910390a13360009081526001602052604081208054916101bb836106c3565b9190505550505050565b3360009081526001602052604081205460609082908190819086106102265760405162461bcd60e51b8152602060048201526013602482015272496e646578206f7574206f6620626f756e647360681b604482015260640160405180910390fd5b336000908152602081815260408083208984529091529020805460028201546003830154600484015460018501805490939260ff16919084906102689061057a565b80601f01602080910402602001604051908101604052809291908181526020018280546102949061057a565b80156102e15780601f106102b6576101008083540402835291602001916102e1565b820191906000526020600020905b8154815290600101906020018083116102c457829003601f168201915b50505050509350955095509550955095505091939590929450565b6000602081815292815260408082209093529081522080546001820180549192916103269061057a565b80601f01602080910402602001604051908101604052809291908181526020018280546103529061057a565b801561039f5780601f106103745761010080835404028352916020019161039f565b820191906000526020600020905b81548152906001019060200180831161038257829003601f168201915b50505050600283015460038401546004909401549293909260ff909116915085565b80356001600160a01b03811681146103d857600080fd5b919050565b6000602082840312156103ef57600080fd5b6103f8826103c1565b9392505050565b634e487b7160e01b600052604160045260246000fd5b6000806040838503121561042857600080fd5b823567ffffffffffffffff8082111561044057600080fd5b818501915085601f83011261045457600080fd5b813581811115610466576104666103ff565b604051601f8201601f19908116603f0116810190838211818310171561048e5761048e6103ff565b816040528281528860208487010111156104a757600080fd5b826020860160208301376000602093820184015298969091013596505050505050565b6000602082840312156104dc57600080fd5b5035919050565b8581526000602060a08184015286518060a085015260005b818110156105175788810183015185820160c0015282016104fb565b50600060c0828601015260c0601f19601f8301168501019250505084604083015283151560608301528260808301529695505050505050565b6000806040838503121561056357600080fd5b61056c836103c1565b946020939093013593505050565b600181811c9082168061058e57607f821691505b6020821081036105ae57634e487b7160e01b600052602260045260246000fd5b50919050565b601f8211156105fe57600081815260208120601f850160051c810160208610156105db5750805b601f850160051c820191505b818110156105fa578281556001016105e7565b5050505b505050565b815167ffffffffffffffff81111561061d5761061d6103ff565b6106318161062b845461057a565b846105b4565b602080601f831160018114610666576000841561064e5750858301515b600019600386901b1c1916600185901b1785556105fa565b600085815260208120601f198616915b8281101561069557888601518255948401946001909101908401610676565b50858210156106b35787850151600019600388901b60f8161c191681555b5050505050600190811b01905550565b6000600182016106e357634e487b7160e01b600052601160045260246000fd5b506001019056fea2646970667358221220414584a50cba66499e6a25f9a74ba71c126b66c945c9eed3b3577436b0c2f84d64736f6c63430008120033",
  "immutableReferences": {},
  "source": "// SPDX-License-Identifier: MIT\r\npragma solidity >=0.4.22 <0.9.0;\r\n\r\ncontract TestContract {\r\n  \r\n  struct Product {\r\n    uint id;\r\n    string name;\r\n    uint quantity;\r\n    bool avalible;\r\n    uint createdAt;\r\n  }\r\n\r\n  event ProductAdded (\r\n    uint id,\r\n    string name,\r\n    uint quantity,\r\n    bool avalible,\r\n    uint createdAt\r\n  );\r\n\r\n  event ProductDecreased (\r\n    uint id,\r\n    string name,\r\n    uint quantity\r\n  );\r\n\r\n  mapping(address => mapping(uint => Product)) public products;\r\n  mapping(address => uint) public productsCounter;\r\n\r\n  constructor() {\r\n    addNewProduct('product 1', 78);\r\n    \r\n  }\r\n\r\n  function addNewProduct(string memory _name, uint _quantity) public {\r\n    uint counter = productsCounter[msg.sender];\r\n    products[msg.sender][counter] = Product(counter, _name, _quantity, true, block.timestamp);\r\n    emit ProductAdded(counter, _name, _quantity, true, block.timestamp);\r\n    productsCounter[msg.sender]++;\r\n  }\r\n\r\n  function getProduct(uint index) public view returns (uint, string memory, uint, bool, uint) {\r\n    require(index < productsCounter[msg.sender], \"Index out of bounds\");\r\n    Product storage product = products[msg.sender][index];\r\n    return (product.id, product.name, product.quantity, product.avalible, product.createdAt);\r\n  }\r\n\r\n}\r\n",
  "sourcePath": "C:\\Users\\loren\\Downloads\\Projects\\blockchain\\blockchain-inventory-system\\contracts\\TestContract.sol",
  "compiler": {
    "name": "solc",
    "version": "0.8.18+commit.87f61d96.Emscripten.clang"
  },
  "schemaVersion": "3.4.12",
  "updatedAt": "2023-11-16T23:24:32.005Z",
  "devdoc": {
    "kind": "dev",
    "methods": {},
    "version": 1
  },
  "userdoc": {
    "kind": "user",
    "methods": {},
    "version": 1
  }
}